:020000040800F2
:1000000058450020090200081102000813020008E8
:10001000150200081702000819020008000000007D
:100020000000000000000000000000006501000862
:100030001D02000800000000A90100089D4E0008F4
:100040002302000823020008230200085D4C000878
:1000500023020008230200082302000823020008EC
:10006000230200081D0900082302000823020008DB
:1000700023020008230200082302000823020008CC
:1000800023020008230200082302000823020008BC
:100090004903000823020008230200082302000885
:1000A000230200082302000823020008230200089C
:1000B000230200089D4F0008095000085141000824
:1000C000230200082302000823020008230200087C
:1000D000230200082302000823020008230200086C
:1000E0002302000823020008230200080000000089
:1000F0000000000000000000000000000000000000
:100100000000000000000000230200082302000895
:10011000230200082302000823020008230200082B
:10012000230200082302000823020008230200081B
:100130002302000800000000000000002302000865
:10014000010400082302000823020008F14A000805
:10015000DFF80CD000F0BAF80048004781760008BC
:1001600058450020204B19680868B0E8F00F80F36C
:100170000988BFF36F8F4FF0000080F311884EF0B5
:100180000D0E70470000000006480068006880F30C
:10019000088862B661B6BFF34F8FBFF36F8F00DF81
:1001A00000BF00BF08ED00E0EFF30980BFF36F8FE1
:1001B0000D4B1A6820E9F00F106008B54FF05000A1
:1001C00080F3118808F05EF84FF0000080F311888A
:1001D000BDE8084019680868B0E8F00F80F30988A6
:1001E000BFF36F8F704700BFCC130020EFF3118077
:1001F0004FF0500181F31188704780F311887047E8
:10020000EFF3058070470000064880470648004726
:10021000FEE7FEE7FEE7FEE7FEE7FEE7FEE7FEE7B6
:10022000FEE7FEE7394F00085101000840EA0103EC
:100230009B0703D009E008C9121F08C0042AFAD29C
:1002400003E011F8013B00F8013B521EF9D2704760
:10025000D2B201E000F8012B491EFBD27047002208
:10026000F6E710B513460A4604461946FFF7F0FFB5
:10027000204610BD421C10F8011B0029FBD1801A3A
:10028000704730B505460020034600E05B1C9342F2
:1002900005D2EC5CC85C201A01D1002CF6D130BD2F
:1002A00030B50B46014600202022012409E021FA46
:1002B00002F59D4205D303FA02F5491B04FA02F543
:1002C0002844151EA2F10102F1DC30BD064C074D99
:1002D00006E0E06840F0010394E807009847103416
:1002E000AC42F6D3FFF738FFA08D0008C08D0008A0
:1002F00070B58C1810F8015B15F0070301D110F8E8
:10030000013B2A1106D110F8012B03E010F8016B14
:1003100001F8016B5B1EF9D12B0705D40023521E97
:100320000DD401F8013BFAE710F8013BCB1A921CFF
:1003300003E013F8015B01F8015B521EF9D5A142FD
:10034000D8D3002070BD000010B5002025490860FA
:10035000254800F0DFFB312024490870244800685C
:10036000486023488068042803D1214840684860D9
:1003700003E01F4800681D4948601C480021816057
:10038000C160002007E01A49143111F820201749F4
:1003900008310A54401C164909698142F3D80C21DE
:1003A0001248083000F0FCF9202110480174104870
:1003B000007C3030C1B20D484174202181740D4859
:1003C0000D490968415C0948C1740023054A01468A
:1003D0000A48006808F0AEF90021034800F0E5FE85
:1003E00010BD0000480700208C1A002020160020B5
:1003F0009C1B002025070020640D00207C0D0020A0
:1004000010B5002023490860234800F083FB322008
:100410002249087022488068042803D12048406897
:10042000486003E01E4800681C4948601B480021E2
:100430008160C160002007E01949143111F82020C3
:10044000164908310A54401C154909698142F3D8FC
:100450000C211248083000F0A3F920210F48017444
:100460000F48007C3030C1B20C48417420218174A7
:100470000C480D490968415C0848C1740023054ACD
:1004800001460A48006808F055F90021024800F0CA
:100490008CFE10BD4C070020CC1A00204416002012
:1004A000D81B002025070020680D00207C0D0020AF
:1004B00070B504460D46206800F5D87000EB0510B5
:1004C000006800F00400616B8860606B806860B950
:1004D000206800F5D87000EB0510006840F2FF714D
:1004E00001EA5050616B08600BE0206800F5D8709D
:1004F00000EB051000686FF0604101EAD000616B0D
:100500004860206800F5D87000EB0510006800F026
:100510000200616BC860206800F5D87000EB051020
:10052000406800F00F00616B0861206800F5D8702A
:1005300000EB05104068C0F30720616B486320683A
:1005400000F5D87000EB05108068C0B2616B48619F
:10055000206800F5D87000EB05108068C0F3072113
:10056000606B8161206800F5D87000EB0510806831
:10057000C0F30741606BC161206800F5D87000EBE3
:1005800005108068000E616B0862206800F5D87065
:1005900000EB0510C068C1B2606B4162206800F5D5
:1005A000D87000EB0510C068C0F30721606B816252
:1005B000206800F5D87000EB0510C068C0F3074153
:1005C000606BC162206800F5D87000EB0510C06850
:1005D000000E616B086365B92068C06840F02000B8
:1005E0002168C8602068406920F0020021684861E5
:1005F0000BE02068006940F0200021680861206855
:10060000406920F010002168486194F839002228E0
:1006100005D12068406920F40F402168486194F8B2
:100620003900322803D1122084F8390002E0012079
:1006300084F83900204600F0F8FD002070BD10B5A8
:1006400004462068406920F001002168486194F860
:100650003900122805D12068406920F40F40216834
:10066000486194F83900322803D1222084F83900F7
:1006700002E0012084F83900204600F001FF00204C
:1006800010BD0346042B15D007DC7BB1012B0ED027
:10069000022B0DD0032B12D10BE0202B0BD0212BE2
:1006A0000AD0222B09D0232B09D107E008E007E06C
:1006B00006E005E004E003E002E001E000E000BF46
:1006C00000BF0020704700207047000010B50848A8
:1006D00008490860002208490648006805F0CAF980
:1006E00006490448006805F0BEF9002010BD00006E
:1006F000442200205807002028190020F318002069
:1007000070B505460C460020134908602946134879
:100710002268FFF78BFD2178114802780078401C91
:100720000F4B18700F48815400230B4A0B490E4899
:10073000006807F0FFFF40B901200C490870074925
:100740000B482268FFF772FD03E00A48006805F0D5
:1007500066F9002070BD00006C07002073180020AF
:100760005407002073170020840D00202B0D00205B
:10077000B31800205807002070B504460D46002627
:100780002A4621460548006805F074F903480068C8
:1007900005F0AFF90646304670BD0000580700204E
:1007A0002DE9FF4104460D460020009055480068A1
:1007B00055490860084655A10268684606F06EFD76
:1007C0000746012F09D19DF8006030208DF8000008
:1007D0008DF801008DF802600CE0022F0AD19DF81F
:1007E00000609DF8018030208DF800008DF80160D8
:1007F0008DF80280464845A1026803A806F04EFD28
:100800000746012F06D19DF80C6030208DF80C00B2
:100810008DF80D609DF80C2028466D1C22549DF823
:100820000D2028466D1C22542E2228466D1C225471
:10083000384836A1026802A806F030FD0746012FAD
:1008400006D19DF8086030208DF808008DF8096009
:100850009DF8082028466D1C22549DF80920284642
:100860006D1C22542E2228466D1C22542A4827A192
:10087000026801A806F012FD0746012F09D19DF874
:10088000046030208DF804008DF805008DF80660B6
:100890000CE0022F0AD19DF804609DF805803020FD
:1008A0008DF804008DF805608DF806809DF8042011
:1008B00028466D1C22549DF8052028466D1C2254A4
:1008C0009DF8062028466D1C22542E2228466D1CB9
:1008D00022549DF8002028466D1C22549DF80120CA
:1008E00028466D1C22549DF8022028466D1C225477
:1008F0000D2228466D1C22540A2228466D1C2254C3
:10090000BDE8FF8124040040740D00202564000030
:100910003C070020380700203407002010B50920CC
:1009200001F0A0F9082000F057FE002010490860EF
:100930001048007830B101200F49087000200D499F
:10094000087005E001200B49087000200A49087072
:100950000023074A19460948006807F0EBFE0448DF
:100960000068012802D100070549086010BD000099
:1009700050070020260D0020270D0020000E00202B
:1009800004ED00E000B58BB000200A900120099032
:10099000002005900190029003900490079006902B
:1009A000089001A9054800F00DF80E200A9001A951
:1009B000034800F007F80BB000BD00008C1A0020BF
:1009C000CC1A002030B5024600230C7D012000FA2D
:1009D00004F31068D0F8000220F47C5001254C6A22
:1009E00045EA042420431468C4F800021068D0F8D3
:1009F0001C0298431468C4F81C02C869E8B910685E
:100A0000D0F80C0298431468C4F80C02888880B2AD
:100A10008C8940EA0444106800F510704D6940F874
:100A20003540088880B20C8940EA0444106800F51B
:100A300010704D6900EBC5004460C86901281DD1E4
:100A40001068D0F80C0218431468C4F80C028888A7
:100A500080B20C8840EA0444106800F510704D69BB
:100A600040F83540888980B20C8940EA0444106817
:100A700000F510704D6900EBC5004460886938B915
:100A80001068D0F8040298431468C4F8040206E021
:100A90001068D0F8040218431468C4F80402086906
:100AA00038B91068D0F8140298431468C4F81402D6
:100AB00006E01068D0F8140218431468C4F8140251
:100AC000086A012806D11068D0F81C02184314687F
:100AD000C4F81C021068D0F8000220F0010014686D
:100AE000C4F80002002030BD10B504460CB9012046
:100AF00010BD022084F83900204600F087F900205C
:100B000084F8390000BF84F8380000BF00BFEFE769
:100B10007047000010B504462068406900F00100ED
:100B200000B32068806863490840884201D10120F1
:100B300000E0002098B9206880685F49084088423A
:100B400001D1012000E0002048B9206880685B499D
:100B50000840884201D1012000E0002010B1204669
:100B6000FFF76DFD20684069C0F3400040B1206888
:100B7000C06800F0030018B100212046FFF798FC80
:100B800020684069C0F3001040B12068006900F09F
:100B9000030018B101212046FFF78AFC2068806914
:100BA00000F0010068B120684069C0F3002040B146
:100BB00020684069C0F3C03018B1E06B40F001001C
:100BC000E06320688069C0F3400068B12068406934
:100BD000C0F3402040B120684069C0F3C03018B174
:100BE000E06B40F00200E06320688069C0F38000A1
:100BF00068B120684069C0F3802040B12068406936
:100C0000C0F3C03018B1E06B40F00400E06320682E
:100C1000806900F0700080B320684069C0F3C02094
:100C200058B320684069C0F3C03030B32068806991
:100C300000F0700040281BD006DC102809D02028C6
:100C40000CD0302824D10EE0502817D060281FD1B6
:100C500019E0E06B40F00800E0631AE0E06B40F060
:100C60001000E06315E0E06B40F02000E06310E06E
:100C7000E06B40F04000E0630BE011E0E06B40F01F
:100C80008000E06305E0E06B40F48070E06300E02A
:100C900000BF00BF2068806920F070002168886173
:100CA000E06B28B1012084F839002046FFF730FFBF
:100CB00010BD000003000004000300080000031042
:100CC0002DE9F041044600270026002514B9012033
:100CD000BDE8F08194F8390028B9002084F8380084
:100CE000204600F0DBF8022084F839002068006814
:100CF00020F00200216808602068006840F00100D0
:100D00002168086000F008FE06460EE000F004FED0
:100D1000801B0A2809D9032084F8390000BF00206D
:100D200084F8380000BF0320D2E72068406800F054
:100D300001000028EAD02068406800F00100002887
:100D400055D0A069012801D145F08005E06901284E
:100D500001D145F04005206A012801D145F0200568
:100D6000606A012801D145F01005A06A012801D16F
:100D700045F00805E06A012801D145F00405206826
:100D8000006820F0FC00284321680860D4E90201D3
:100D9000084321690843616908436168491E0843A3
:100DA0002168C8612068006820F00100216808609F
:100DB00000F0B2FD06460EE000F0AEFD801B0A28F2
:100DC00009D9032084F8390000BF002084F83800D6
:100DD00000BF03207CE72068406800F00100002885
:100DE000EAD02068406800F0010000B10127012F1F
:100DF00006D10020E063012084F83900002067E775
:100E0000042084F83900012062E7000010B5044690
:100E10001D492068884216D11C480068401E1B49A5
:100E200008600846006828B91948C06920F00070B9
:100E30001749C8614FF44071164800F02FFB142089
:100E400000F010FF1FE01449206888421BD11048B1
:100E5000C06920F080600E49C8610C480068401EDF
:100E60000A4908600846006828B90948C06920F0A6
:100E700000700749C8614FF44051064800F00EFB6E
:100E8000402000F0EFFE10BD00640040140100207F
:100E900000100240000C01400068004010B586B010
:100EA00004464449206888423CD143480068401CBD
:100EB000414908600846006801280DD100BF3F483D
:100EC000C06940F000703D49C8610846C06900F043
:100ED0000070019000BF00BF4FF4807002900020AE
:100EE0000390049002A9364800F084FB4FF4007090
:100EF0000290022003900320059002A9304800F0E0
:100F000079FB3048406820F4C04040F480402D49CF
:100F1000486000220521142000F0BFFE142000F0DC
:100F2000AFFE45E028492068884241D100BF2348F0
:100F3000C06940F080602149C8610846C06900F07E
:100F40008060019000BF00BF1B480068401C1A4928
:100F500008600846006801280DD100BF1748C06925
:100F600040F000701549C8610846C06900F0007083
:100F7000019000BF00BF4FF480500290002003900A
:100F8000049002A90E4800F035FB4FF40050029087
:100F9000022003900320059002A9094800F02AFBD3
:100FA00000220521402000F078FE402000F068FE7D
:100FB00006B010BD00640040140100200010024083
:100FC000000C014000000140006800402DE9F041A4
:100FD00004460D461646002700BF94F83800012845
:100FE00002D10220BDE8F081012084F8380000BF62
:100FF00094F83900122803D1322084F8390002E035
:10100000222084F8390000F087FC074611E0701CAC
:1010100078B126B100F080FCC01BB04209D9032092
:1010200084F8390000BF002084F8380000BF032096
:10103000D8E725B92068C06800F0030003E0206805
:10104000006900F003000028E1D0206800F5D870A6
:1010500000EB0510006800F00400616B8860606BB5
:10106000806860B9206800F5D87000EB0510006852
:1010700040F2FF7101EA5050616B08600BE020689C
:1010800000F5D87000EB051000686FF0604101EAD0
:10109000D000616B4860206800F5D87000EB051047
:1010A000006800F00200616BC860206800F5D8702D
:1010B00000EB0510406800F00F00616B08612068CC
:1010C00000F5D87000EB05104068C0F30720616B95
:1010D0004863206800F5D87000EB05108068C0B246
:1010E000616B4861206800F5D87000EB05108068DE
:1010F000C0F30721606B8161206800F5D87000EBB8
:1011000005108068C0F30741606BC161206800F57D
:10111000D87000EB05108068000E616B08622068D3
:1011200000F5D87000EB0510C068C1B2606B416279
:10113000206800F5D87000EB0510C068C0F30721E7
:10114000606B8162206800F5D87000EB0510C06804
:10115000C0F30741606BC162206800F5D87000EBF6
:101160000510C068000E616B086335B92068C0685F
:1011700040F020002168C86005E02068006940F068
:1011800020002168086194F83900322803D1122028
:1011900084F8390002E0012084F8390000BF002003
:1011A00084F8380000BF00BF1CE7024692F83900FF
:1011B000012803D092F83900122832D100BF92F8EA
:1011C0003800012801D102207047012082F8380040
:1011D00000BF92F83900122803D1322082F839007A
:1011E00002E0222082F839000020D06310684069B4
:1011F00048F6017318431368586100BF002082F855
:10120000380000BF31B91068406940F0020013682F
:10121000586108E01068406940F010001368586198
:1012200001E00220D0E70020CEE770472DE9F04131
:1012300004460E460425002700BF94F83800012814
:1012400002D10220BDE8F081012084F8380000BFFF
:1012500094F83900222803D1322084F8390002E0C2
:10126000122084F839002068806800F0806008B19E
:1012700000250EE02068806800F0006008B10125BC
:1012800007E02068806800F0805008B1022500E087
:101290000425042D7DD0206800F5C07000EB0510FA
:1012A000006800F00101206800F5C07000EB051037
:1012B0000160206B806898B9206800F5C07000EB71
:1012C00005100068216BC968226B128841EA4251FF
:1012D0000843216801F5C07101EB0511086015E0B4
:1012E000206800F5C07000EB05100068216B89686C
:1012F000226B526841EAC201226BD2681143084353
:10130000216801F5C07101EB05110860206B007CBC
:1013100000F00F00216B0861206800F5C07000EB41
:101320000510406820F00F01206800F5C07000EB48
:1013300005104160206800F5C07000EB05104068A2
:10134000216B09690843216801F5C07101EB0511A2
:101350004860206B90F820000106206B808B41EAEA
:101360000041206B806941EA0021206B4069014304
:10137000206800F5C07000EB05108160206B90F8CC
:1013800030000106206B808D41EA0041206B806AAD
:1013900000E065E041EA0020216B496A08432168CA
:1013A00001F5C07101EB0511C860206800F5C0703F
:1013B00000EB0510006840F00101206800F5C070E6
:1013C00000EB0510016000F0A7FA074611E0701C61
:1013D00078B126B100F0A0FAC01BB04209D90320B1
:1013E00084F8390000BF002084F8380000BF0320D3
:1013F00028E74DB9206880681E490840884201D11D
:10140000012016E0002014E0012D09D12068806839
:1014100019490840884201D101200AE0002008E073
:101420002068806815490840884201D1012000E009
:1014300000200028CBD094F83900322807D1222090
:1014400084F8390000BF002084F8380002E0012051
:1014500084F8390000BF002084F8380000BFF1E6AE
:10146000042084F8390000BF002084F8380000BF51
:101470000120E7E603000004000300080000031059
:10148000704731B5002400F047FA044600BF00F071
:1014900043FA001B00998842F9D338BD2DE9F04189
:1014A00002460B4600200021002400267FE0012791
:1014B000874007EA0301002978D0FF2901D81746A1
:1014C00000E0171D3D46FF2901D8870002E0A0F18A
:1014D0000807BF003E462F684FF00F0C0CFA06FCC1
:1014E00027EA0C074FF0040C0CFA06FC47EA0C073D
:1014F0002F60D7688F43D760304F4FEA900C57F872
:101500002C4087074FEA177C0F2707FA0CF73C405F
:101510002B4FBA4201D100270FE02A4FBA4201D126
:1015200001270AE0284FBA4201D1022705E0274FE0
:10153000BA4201D1032700E004274FEA807C4FEA3A
:101540001C7C07FA0CF7A74230D187074FEA177CBB
:101550000F2707FA0CF4194F4FEA900C57F82C702C
:10156000A743DFF858C04FEA90084CF82870184F8E
:101570003F688F43DFF858C0CCF800700CF10407C7
:101580003F688F430CF1040CCCF800700CF1040799
:101590003F688F430CF1040CCCF800700CF1040789
:1015A0003F688F430CF1040CCCF80070401C23FA08
:1015B00000F7002F7FF47BAFBDE8F0810800014009
:1015C00000080140000C01400010014000140140DF
:1015D000000401407047000010B50446044800684C
:1015E000204020B1024804602046FFF7F3FF10BD01
:1015F000140401402DE9F84703460024002000258B
:101600008446002700226EE14FF0010808FA02F438
:10161000D1F8008008EA0400A0427DD1DFF8D0A212
:10162000D1F80480A8EB0A09D0453AD014DCB8F10F
:10163000030F50D009DCB8F1000F31D0B8F1010F21
:101640001CD0B8F1020F49D120E0B8F1110F18D029
:10165000B8F1120F42D11EE0B9F5881F25D006DC83
:10166000B9F5803F20D0B9F5801F37D11AE0B9F520
:10167000001F18D0B9F5041F30D117E0D1F80CC005
:101680002DE0D1F80C8008F1040C28E0D1F80C8092
:1016900008F1080C23E0D1F80C8008F10C0C1EE0D6
:1016A00000BF00BF00BF00BF00BF00BFD1F808806F
:1016B000B8F1000F02D14FF0040C0BE0D1F8088014
:1016C000B8F1010F03D14FF0080C1C6102E04FF09C
:1016D000080C5C6103E04FF0000C00E000BF00BFAD
:1016E000FF2801D8984601E003F104084646FF2888
:1016F00002D84FEA820803E0A2F108084FEA8808FE
:101700004746D6F800804FF00F0909FA07F928EA92
:1017100009080CFA07F900E088E048EA0908C6F869
:101720000080D1F8048008F08058B8F1805F7DD146
:1017300000BFDFF8C081D8F8188048F00108DFF852
:10174000B491C9F81880C846D8F8188008F0010884
:10175000CDF8008000BF00BF4FEAB9384FEA9209C8
:1017600058F829504FEA82784FEA18794FF00F085D
:1017700008FA09F825EA0805DFF87C81434502D11B
:101780004FF0000816E0DFF87481434502D14FF0B6
:1017900001080FE0DFF86881434502D14FF00208ED
:1017A00008E0DFF86081434502D14FF0030801E013
:1017B0004FF004084FEA82794FEA197908FA09F8DC
:1017C00048EA0505DFF840814FEA920948F82950B8
:1017D000D1F8048008F48038B8F5803F0AD1DFF8EA
:1017E0002C81D8F8008048EA0008DFF82091C9F879
:1017F000008009E0DFF81481D8F8008028EA0008AA
:10180000DFF80891C9F80080D1F8048008F40038A6
:10181000B8F5003F10D1DFF8F48008F10408D8F8DB
:10182000008048EA0008DFF8E49000E05AE009F19F
:101830000409C9F800800DE0DFF8D08008F1040841
:10184000D8F8008028EA0008DFF8C09009F1040900
:10185000C9F80080D1F8048008F48018B8F5801F1A
:101860000ED1DFF8A88008F10808D8F8008048EA0F
:101870000008DFF8989009F10809C9F800800DE028
:10188000DFF8888008F10808D8F8008028EA000806
:10189000DFF8789009F10809C9F80080D1F80480D0
:1018A00008F40018B8F5001F0ED1DFF8608008F1C9
:1018B0000C08D8F8008048EA0008DFF8509009F1D9
:1018C0000C09C9F800800DE0DFF8408008F10C0831
:1018D000D8F8008028EA0008DFF8309009F10C09F8
:1018E000C9F80080521C102AFFF48EAEBDE8F887BC
:1018F000000011100010024000080140000C0140DF
:1019000000100140001401400800014000040140A3
:10191000C2684A40C26070470148006870470000D2
:10192000A81300202DE9F0410446002700260025D9
:10193000A8462068806900F00100002846D0206891
:101940008069C0F3800000B320684069C0F3C0170D
:1019500020684068C0F3802620684069C0F3800595
:1019600020684068C0F3402837B1012E04D11DB96A
:10197000204602F061FD8CE0012DFCD1B8F1010F91
:10198000F9D1204602F020FD83E020684069C0F3D1
:10199000801720684068C0F3802620684069C0F343
:1019A000800520684068C0F3402837B1012E04D17B
:1019B0001DB9204602F03CFC6BE0012D69D1B8F165
:1019C000010F66D1204602F0CBFB62E0206840693F
:1019D000C0F3400720684068C0F340262068406993
:1019E000C0F3001520688069C0F380082FB1012E74
:1019F00003D1204602F06EFD4BE0012D05D1012EF2
:101A000003D1204602F074FD43E0B8F1010F20D16C
:101A100020684069C0F3C01720684068C0F3802682
:101A200020684069C0F3800520684068C0F3402802
:101A300037B1012E04D11DB9204602F03DFD28E04A
:101A4000012D26D1B8F1010F23D1204602F026FD49
:101A50001FE020684069C0F3801720684068C0F329
:101A6000802620684069C0F3800520684068C0F384
:101A7000402837B1012E04D11DB9204602F0FFFCE9
:101A800007E0012D05D1B8F1010F02D1204602F087
:101A9000E7FCBDE8F08170477047F8B504460F4693
:101AA00016461D4694F8350001287ED106B10DB9C1
:101AB0000120F8BD20688069C0F3400008B1022011
:101AC000F7E700BF94F83400012801D10220F0E7C5
:101AD000012084F8340000BF222084F83500002063
:101AE000A06366622585658523223946204602F07B
:101AF000EFFB80B1A06B042806D100BF002084F862
:101B0000340000BF0120D4E700BF002084F8340077
:101B100000BF0320CDE7608D012815D12068006843
:101B200020F480602168086000BF20684069009050
:101B300020688069009000BF00BF2068006840F402
:101B400000702168086026E0608D022814D12068AA
:101B5000006820F48060216808602068006840F414
:101B600000602168086000BF20684069009020681C
:101B70008069009000BF0EE02068006840F480603B
:101B80002168086000BF2068406900902068806973
:101B9000009000BF00BF00BF002084F8340000BFE9
:101BA0002068406840F4E06000E003E0216848609D
:101BB00000207EE702207CE77047704738B5054675
:101BC00001236A4600210248FFF767FF044638BD3B
:101BD0006019002002480068401C014908607047F5
:101BE000A813002010B50848006840F0100006490E
:101BF0000860032000F090F8002000F007F800F0E3
:101C000017F8002010BD00000020024070B5044607
:101C100001F030F94FF47A71B0FBF1F5284602F08B
:101C20002DF800222146501E00F037F8002070BD2C
:101C300008B500BF0A48806940F001000849886182
:101C40000846806900F00100009000BF00BF03203B
:101C500000F062F800221146501E00F01EF808BD88
:101C60000010024000BF00F01F0201219140034A12
:101C7000430942F8231000BF7047000080E100E0F4
:101C800000BF00F01F02012191404209920002F1C1
:101C9000E022C2F8001100BF70472DE9F05F8046D6
:101CA0000D461646002702F007FF074639462A462A
:101CB000334601F00700C0F1070ABAF1040F02D958
:101CC0004FF0040A01E0C0F1070AD14600F1040A0E
:101CD000BAF1070F02D24FF0000A01E0A0F1030AA7
:101CE000D4464FF0010A0AFA09FAAAF1010A0AEAEF
:101CF000020A0AFA0CFA4FF0010B0BFA0CFBABF1DB
:101D0000010B0BEA030B4AEA0B042146404602F0A2
:101D1000DBFEBDE8F09F000000BF00F00702064BAD
:101D200019684FF6FF031940044B0B4343EA0221A5
:101D3000014B196000BF70470CED00E00000FA0590
:101D4000704702461068416200207047F0B50346B4
:101D50001446002500221868426A21B942EA04406C
:101D60001E68B06219E01868806A02EB1042002514
:101D700008E0186800F5827050F8250002EB104268
:101D8000681CC5B2481EA842F3DC42EA0447186842
:101D900000F582704E1E40F826700020F0BD10B590
:101DA0000446D4F8A40304F0DBF910BD70B5044672
:101DB0000D46C5EBC50304F1280101EB8301CA6898
:101DC0002946D4F8A40304F027F970BD70B5044681
:101DD0000D46C5EBC50304F5E67101EB8301CA6846
:101DE0002946D4F8A40304F078F970BD10B5044670
:101DF000D4F8A40304F0B7F910BD70B504460D463D
:101E0000002605F08000802808D105F07F00C0EB97
:101E1000C00104F1280000EB810607E005F07F0017
:101E2000C0EBC00104F5E67000EB810605F07F0011
:101E3000307005F08000C009707000BF94F8700326
:101E4000012801D1022070BD012084F8700300BF79
:101E50003146206804F066FD00BF002084F870035E
:101E600000BF00BFEFE770B504460D46002605F041
:101E70008000802808D105F07F00C0EBC00104F18C
:101E8000280000EB810605E0C5EBC50104F5E6700E
:101E900000EB81060020B07005F07F003070C5F3C4
:101EA000C010707000BF94F87003012801D10220A7
:101EB00070BD012084F8700300BF3146206804F033
:101EC00039FF00BF002084F8700300BF00BFEFE7B8
:101ED000024601F07F00C0EBC00302F5E67000EBA4
:101EE0008300008B80B270472DE9F04704460D4611
:101EF000174698464FF00009002605F0800080281C
:101F000008D105F07F00C0EBC00104F1280000EB10
:101F1000810607E005F07F00C0EBC00104F5E67024
:101F200000EB810605F07F00307005F08000C009ED
:101F30007070B76086F8038000BF94F870030128C2
:101F400002D10220BDE8F087012084F8700300BFB1
:101F50003146206804F024FC00BF002084F87003A0
:101F600000BF4846EEE72DE9F04104460E4617460D
:101F70009846002506F07F00C0EBC00104F5E6702E
:101F800000EB8105EF60C5F814800020A86168703F
:101F900006F07F00287000BF94F87003012802D17A
:101FA0000220BDE8F081012084F8700300BF06F034
:101FB0007F0020B92946206804F0E2FD03E02946AD
:101FC000206804F041FF00BF002084F8700300BFC8
:101FD00000BFE6E770B504460D46002605F0800018
:101FE000802808D105F07F00C0EBC00104F1280073
:101FF00000EB810605E0C5EBC50104F5E67000EBDA
:1020000081060120B07005F07F003070C5F3C0106C
:10201000707000BF94F87003012801D1022070BDD8
:10202000012084F8700300BF3146206804F0C6FE2A
:1020300005F07F0020B904F55D71206804F062FEB0
:1020400000BF002084F8700300BF00BFE7E72DE960
:10205000F04104460E4617469846002506F07F00DC
:10206000C0EBC00104F1280000EB8105EF60C5F86A
:1020700014800020A8610120687006F07F0028709D
:1020800000BF94F87003012802D10220BDE8F0815E
:10209000012084F8700300BF06F07F0020B92946B4
:1020A000206804F06DFD03E02946206804F0CCFEB2
:1020B00000BF002084F8700300BF00BFE6E72DE9F1
:1020C000F84F044625684FF0000AD346D046002654
:1020D0000020009000278146206805F03DF8002888
:1020E0007CD1206805F076F808B9BDE8F88F206843
:1020F00005F070F800F00200022801D12168486163
:10210000206805F067F800F40020B0F5002F37D103
:102110000026206805F02FF883462EE00BF0010022
:1021200040B3F1B2206805F049F8804608F001009C
:1021300048B1012105F5306000EB46108160F1B235
:102140002046FFF743FE08F00800082808D1204683
:1021500000F0E2FA082105F5306000EB46108160DE
:1021600008F01000102805D1102105F5306000EBB3
:1021700046108160761C4FEA5B0BBBF1000FCDD19E
:10218000206805F027F800F48020B0F5802F5ED19C
:10219000206804F0E6FF8346002655E00BF00100BE
:1021A00000284ED0F1B2206804F0EFFF804608F01E
:1021B0000100B0B10120B040009040F63400405919
:1021C0000099884340F634014851012105F510601B
:1021D00000EB46108160F1B2204600E072E1FFF7AB
:1021E000E5FD08F00800082805D1082105F5106074
:1021F00000EB4610816008F01000102805D1102176
:1022000005F5106000EB4610816008F040004028A2
:1022100005D1402105F5106000EB4610816008F003
:102220000200022805D1022105F5106000EB4610DE
:10223000816008F08000802803D13146204602F0FA
:102240005FFC761C4FEA5B0BBBF1000FA6D1206848
:1022500004F0C0FF00F00040B0F1004F0ED140F696
:102260000400405920F0010140F60400415120468D
:1022700000F029FA4FF0004021684861206804F01E
:10228000A9FF00F40060B0F5006F0CD140F6080023
:10229000405900F0010010B1204600F065FA4FF4FB
:1022A000006021684861206804F094FF00F48050C9
:1022B000B0F5805F48D140F60400405920F001019C
:1022C00040F6040041510021206804F02DFF4FF03A
:1022D000000A0CE0FF2105F5106000EB4A10816058
:1022E00005F5306000EB4A1081600AF1010A606870
:1022F0005045EFD84FF0FF3140F618004151001D16
:10230000405940F0011140F61C00415140F61400C4
:10231000405940F00B0140F614004151001F405954
:1023200040F00B014FF401604151D5F8000820F452
:10233000FE60C5F8000804F55D71206804F0E2FC59
:102340004FF4805021684861206804F043FF00F496
:102350000050B0F5005F19D1206804F08DFA2068B4
:10236000C06820F470502168C8600321E1604021FA
:1023700021612068C06840F4A0502168C8602046F0
:1023800000F088F94FF4005021684861206804F09B
:1023900021FF00F01000102843D12068806920F050
:1023A0001000216888612F6A07F00F00C0EBC001A0
:1023B00004F5E67000EB8109C7F34340022819D108
:1023C00047F6F070384030B3C7F30A122846D9F800
:1023D0000C1004F005FFC7F30A11D9F80C000844EB
:1023E000C9F80C00C7F30A11D9F818000844C9F855
:1023F000180010E0C7F3434006280CD1082204F56A
:102400005D71284604F0ECFEC7F30A11D9F81800F4
:102410000844C9F818002068806940F0100021685D
:102420008861206804F0D6FE00F00800082805D175
:10243000204600F04FF9082021684861206804F028
:10244000C9FE00F48010B0F5801F07D1F1B220461C
:1024500000F03AF84FF4801021684861206804F0D9
:10246000B9FE00F40010B0F5001F07D1F1B220460C
:1024700000F033F84FF4001021684861206804F040
:10248000A9FE00F08040B0F1804F06D12046FFF752
:1024900086FC4FF0804021684861206804F09AFE75
:1024A00000F0040004280DD12068476807F00400FC
:1024B000042802D12046FFF799FC20684068384381
:1024C0002168486000BF10E670B504460D462946F5
:1024D000D4F8A40303F0A6FE70BD70B504460D4603
:1024E0002946D4F8A40303F0A0FE70BD30B585B032
:1024F0000446002514B9012005B030BD94F87103DD
:1025000028B9002084F87003204600F095F80320D5
:1025100084F87103206804F02BFB142204F11001ED
:102520006846FDF783FE94E80F0004F0C7F9002128
:10253000206804F069FE002530E00121C5EBC502EA
:1025400004F1280000EB82004170C5EBC50204F1E4
:10255000280000F82250C5EBC50200EB8200C580C0
:102560000021C5EBC50204F1280000EB8200C17018
:10257000C5EBC50204F1280000EB82008160C5EBC9
:10258000C50204F1280000EB8200C160C5EBC50262
:1025900004F1280000EB820041616D1C0F2DCCD3AB
:1025A000002531E00021C5EBC50204F5E67000EB23
:1025B00082004170C5EBC50204F5E67000F82250B8
:1025C000C5EBC50204F1280000EB8200C580C5EB15
:1025D000C50204F5E67000EB8200C170C5EBC502D0
:1025E00004F5E67000EB82008160C5EBC50204F5DE
:1025F000E67000EB8200C160C5EBC50204F5E67031
:1026000000EB820041616D1C0F2DCBD3142204F12D
:1026100010016846FDF70AFE94E80F0004F0F4F993
:10262000002084F82400012084F87103206804F05D
:10263000DCF9002060E7000010B586B00446206891
:10264000B0F1A04F1FD14FF4007002900020039012
:10265000049002A90D48FEF7CDFF00BF0C48406969
:1026600040F480500A4948610846406900F48050AF
:10267000019000BF00BF002205214320FFF70DFBA2
:102680004320FFF7FDFA06B010BD0000000801402E
:102690000010024070B504460125E06810B1022820
:1026A00004D101E0002503E0012501E0012500BF80
:1026B00000BF2946D4F8A40303F014FED4F8A40301
:1026C00003F0D6FD70BD10B50446D4F8A40303F0A2
:1026D000F1FD10BD10B50446D4F8A40303F0F1FDDC
:1026E00010BD70B504460D4600BF94F87003012874
:1026F00001D1022070BD012084F8700300BF84F86E
:1027000024502946206804F097FD00BF002084F87B
:10271000700300BF00BFEDE710B5044604F55D711E
:10272000D4F8A40303F0ECFD10BD10B5044600BFBF
:1027300094F87003012801D1022010BD012084F813
:10274000700300BF01212046FFF7FAFA206804F069
:102750003DF9206804F0CAFC00BF002084F8700333
:1027600000BF00BFE9E7000010B50446D4F8A40399
:1027700003F00FFE2068D0F8000E40F00100216841
:10278000C1F8000EA06928B10348006840F00600B7
:102790000149086010BD000010ED00E0F8B50446E6
:1027A000002500260027207800F00100002876D0C0
:1027B00000BFA048C06940F080509E49C8610846EB
:1027C000C06900F08050009000BF00BF9A480068C8
:1027D00040F4807098490860FFF79EF8054606E0CF
:1027E000FFF79AF8401B642801D90320F8BD9248EE
:1027F000006800F480700028F2D08E48006A00F46F
:102800004076A08800F44070B0421BD08948006A2E
:1028100020F440760120010491FAA1F1B1FA81F18E
:10282000864A02EB8101C1F8000400204FF4803198
:1028300091FAA1F1B1FA81F102EB8101C1F8000432
:102840007C4806626068B0F5807F39D1FFF764F894
:10285000054608E0FFF760F8401B41F288318842E6
:1028600001D90320C2E74020022191FAA1F1B1FA77
:1028700081F108430121B1EB601F02D16D4800686E
:1028800010E04020022191FAA1F1B1FA81F1084350
:102890000221B1EB601F03D16648006A02E017E035
:1028A0006448406A4021022292FAA2F2B2FA82F20D
:1028B000114301F01F020121914008400028C9D0B6
:1028C0005C48006A20F44070616808435949086216
:1028D000207800F00200022807D15648406820F412
:1028E0004040A168084353494860207800F0040044
:1028F000042807D14F48C06A20F40030E16808433B
:102900004C49C862207800F00800082807D14948DF
:10291000C06A20F48020216908434649C8624548BE
:10292000C06A00F4003020B94248C06A00F4802038
:1029300000B10127012F6DD13E48006800F08050A2
:1029400000285ED13B48006800F0806040B1394803
:10295000C06A00F0F001A069814201D0012045E782
:102960003448C06A20F0F000A16908433149C862C8
:102970000846C06A20F47040616908432D49C86266
:102980000120010791FAA1F1B1FA81F12B4A42F835
:102990002100FEF7C1FF054606E0FEF7BDFF401B24
:1029A000642801D9032021E72020010691FAA1F132
:1029B000B1FA81F108430121B1EB601F02D11D483A
:1029C00000680FE02020010691FAA1F1B1FA81F12F
:1029D00008430221B1EB601F02D11648006A01E0F2
:1029E0001448406A20210A0692FAA2F2B2FA82F250
:1029F000114301F01F020121914008400028CCD072
:102A000008E00C48C06A00F470406169884201D057
:102A10000120EBE6207800F01000102807D10548CF
:102A2000406820F48000E1690843024948600020C2
:102A3000DCE600000010024000700040000042424E
:102A400070B504460D460026F748006800F0070000
:102A5000A84270D2F448006820F007002843F249E9
:102A600008600846006800F00700A84201D0012075
:102A700070BD207800F00200022807D1EB484068C2
:102A800020F0F000A1680843E8494860207800F091
:102A9000010000286FD0606801282DD1202001039B
:102AA00091FAA1F1B1FA81F108430121B1EB601F64
:102AB00002D1DE4800680FE02020010391FAA1F165
:102AC000B1FA81F108430221B1EB601F02D1D7486E
:102AD000006A01E0D548406A20210A0392FAA2F276
:102AE000B2FA82F2114301F01F0201219140084025
:102AF000002861D10120BBE7606802282DD1202089
:102B0000010591FAA1F1B1FA81F108430121B1EB7C
:102B1000601F02D1C548006810E02020010591FA2D
:102B2000A1F1B1FA81F108430221B1EB601F03D199
:102B3000BE48006A02E083E0BC48406A20210A05E2
:102B400092FAA2F2B2FA82F2114301F01F020121BD
:102B50009140084078BB01208AE72020022191FAA9
:102B6000A1F1B1FA81F108430121B1EB601F03D15A
:102B7000AE48006810E05BE12020022191FAA1F14B
:102B8000B1FA81F108430221B1EB601F02D1A748DD
:102B9000006A01E0A548406A2021022292FAA2F2CE
:102BA000B2FA82F2114301F01F0201219140084064
:102BB00008B901205CE7FFE79C48406820F003006B
:102BC0006168084399494860FEF7A6FE06466068BA
:102BD000012810D108E0FEF79FFE801B41F28831EA
:102BE000884201D9032043E79048406800F00C0078
:102BF0000428F0D11CE16068022810D108E0FEF73B
:102C00008BFE801B41F28831884201D903202FE7D7
:102C10008648406800F00C000828F0D108E108E080
:102C2000FEF77AFE801B41F28831884201D90320E9
:102C30001EE77E48406800F00C000028F0D1F7E065
:102C4000207800F00200022807D17848406820F080
:102C5000F000A168084375494860207800F0010041
:102C600000286ED0606801282CD12020010391FA41
:102C7000A1F1B1FA81F108430121B1EB601F02D14A
:102C80006A4800680FE02020010391FAA1F1B1FA2F
:102C900081F108430221B1EB601F02D16348006A51
:102CA00001E06248406A20210A0392FAA2F2B2FAD5
:102CB00082F2114301F01F0201219140084088BBBC
:102CC0000120D5E6606802282DD12020010591FA67
:102CD000A1F1B1FA81F108430121B1EB601F02D1EA
:102CE000524800680FE02020010591FAA1F1B1FAE5
:102CF00081F108430221B1EB601F02D14B48006A09
:102D000001E04A48406A20210A0592FAA2F2B2FA8A
:102D100082F2114301F01F0201219140084008B9DD
:102D20000120A5E62DE02020022191FAA1F1B1FABF
:102D300081F108430121B1EB601F03D13B480068DA
:102D400010E061E02020022191FAA1F1B1FA81F1B5
:102D500008430221B1EB601F02D13448006A01E050
:102D60003248406A2021022292FAA2F2B2FA82F29A
:102D7000114301F01F0201219140084008B90120D0
:102D800076E62A48406820F0030061680843274936
:102D90004860FEF7C1FD06466068012810D108E0D2
:102DA000FEF7BAFD801B41F28831884201D9032029
:102DB0005EE61E48406800F00C000428F0D123E0D5
:102DC0006068022810D108E0FEF7A6FD801B41F2E2
:102DD0008831884201D903204AE61448406800F04F
:102DE0000C000828F0D10FE008E0FEF795FD801BED
:102DF00041F28831884201D9032039E60B48406806
:102E000000F00C000028F0D10748006820F007000F
:102E10002843054908600846006800F00700A842FA
:102E200006D0012024E600000020024000100240ED
:102E3000207800F00400042807D10D48406820F4F1
:102E4000E060E16808430A494860207800F0080023
:102E5000082808D10648406820F46050216940EAFB
:102E6000C100034948600020FEF7D0FE0020FFE5C6
:102E70000010024010B500F019F80949496801F046
:102E8000F001F02292FAA2F2B2FA82F2D140054A9F
:102E9000515CC840044908600846006810BD000045
:102EA000001002407C8D0008AC1300202DE9F04397
:102EB00087B00FF22418D8E9007CD8F80880CDE953
:102EC00005C804970FF21C1CDCE90089DCE9027CD0
:102ED000CDE9027CCDE900890022002400230021F5
:102EE000002000250026434F7A6802F00C07002FCF
:102EF0006BD0042F02D0082F66D101E03E4866E077
:102F000002F470174FF4701C9CFAACFCBCFA8CFCF9
:102F100027FA0CF70DF1100C1CF8071002F480379B
:102F2000AFB3344FFF6A07F00F074FF00F0C9CFA56
:102F3000ACFCBCFA8CFC27FA0CF71DF807402D4FAF
:102F4000FF6A07F480371FB32A4FFF6A07F0F007C4
:102F50004FF0F00C9CFAACFCBCFA8CFC27FA0CF796
:102F60007D1C244FFF6A07F470674FF4706C9CFA65
:102F7000ACFCBCFA8CFC27FA0CF7BE1C1E4FB7FB4E
:102F8000F5F77743B7FBF4F707FB01F305E016E02D
:102F9000194FB7FBF4F707FB01F34FF450174FF449
:102FA000701C9CFAACFCBCFA8CFC27FA0CF70DF1F7
:102FB000100C1CF807708F4204D15B0802E00F4F21
:102FC00001FB07F3184602E000BF0D4800BF00BF39
:102FD00007B0BDE8F08300000000040506070809FB
:102FE0000000000D0102030405060708090A0B0C86
:102FF0000D0E0F10001002400024F40000093D00E7
:1030000000127A0038B504460025207800F001004F
:1030100000286ED0F748406800F00C0004280CD05F
:10302000F448406800F00C0008283AD1F1484068A4
:1030300000F48030B0F5803F33D12020010391FAB5
:10304000A1F1B1FA81F108430121B1EB601F02D176
:10305000E84800680FE02020010391FAA1F1B1FADD
:1030600081F108430221B1EB601F02D1E148006AFF
:1030700001E0E048406A20210A0392FAA2F2B2FA83
:1030800082F2114301F01F02012191400840002803
:10309000BFD0A0680128BCD0A0680528B9D0012005
:1030A00038BD00BFD348006820F48030D1490860A3
:1030B0000846006820F48020086000BFFEF72CFC62
:1030C000054608E0FEF728FC401B41F288318842A3
:1030D00001D90320E4E72020010391FAA1F1B1FA1C
:1030E00081F108430121B1EB601F03D1C1480068A1
:1030F00010E0B6E02020010391FAA1F1B1FA81F1CC
:1031000008430221B1EB601F02D1BA48006A01E016
:10311000B848406A20210A0392FAA2F2B2FA82F277
:10312000114301F01F020121914008400028C9D13C
:1031300000BFB048006820F48030AE490860A06845
:1031400001280AD10846006820F48020086008465B
:10315000006840F4803008600CE0A068052803D1C6
:10316000207AA449887005E0A248006820F48020F5
:10317000A049086000BFA068C8B3FEF7CDFB0546B4
:1031800008E0FEF7C9FB401B41F28831884201D9B3
:10319000032085E72020010391FAA1F1B1FA81F122
:1031A00008430121B1EB601F02D1924800680FE093
:1031B0002020010391FAA1F1B1FA81F10843022123
:1031C000B1EB601F02D18B48006A01E08948406A78
:1031D00020210A0392FAA2F2B2FA82F2114301F01C
:1031E0001F020121914008400028CAD039E0FFE7C2
:1031F000FEF792FB054608E0FEF78EFB401B41F20E
:103200008831884201D903204AE72020010391FA3E
:10321000A1F1B1FA81F108430121B1EB601F02D1A4
:10322000744800680FE02020010391FAA1F1B1FA7F
:1032300081F108430221B1EB601F02D16D48006AA1
:1032400001E06C48406A20210A0392FAA2F2B2FA25
:1032500082F2114301F01F02012191400840002831
:10326000CAD1207800F0020002284ED1614840689F
:1032700000F00C0050B15F48406800F00C000828D6
:1032800044D15C48406800F4803078BB20200221A3
:1032900091FAA1F1B1FA81F108430121B1EB601F6C
:1032A00002D1544800680FE02020022191FAA1F1D8
:1032B000B1FA81F108430221B1EB601F02D14D4800
:1032C000006A01E04B48406A2021022292FAA2F2F1
:1032D000B2FA82F2114301F01F020121914008402D
:1032E00028B16069012802D00120D9E60EE04148EA
:1032F000006820F0F800F82292FAA2F2B2FA82F204
:10330000A169914008433B49086095E0606970B34A
:10331000012090FAA0F1B1FA81F1374A42F8210078
:10332000FEF7FAFA054606E0FEF7F6FA401B6428B7
:1033300001D90320B4E62020022191FAA1F1B1FACB
:1033400081F108430121B1EB601F02D129480068D7
:1033500010E02020022191FAA1F1B1FA81F1084395
:103360000221B1EB601F03D12248006A02E01EE097
:103370002048406A2021022292FAA2F2B2FA82F296
:10338000114301F01F020121914008400028CBD0D9
:103390001848006820F0F800F82292FAA2F2B2FA77
:1033A00082F2A169914008431249086044E000207C
:1033B000012191FAA1F1B1FA81F10F4A42F82100FD
:1033C000FEF7AAFA054606E0FEF7A6FA401B6428B7
:1033D00001D9032064E62020022191FAA1F1B1FA7B
:1033E00081F108430121B1EB601F07D1014800685A
:1033F00014E00000001002400000424220200221A0
:1034000091FAA1F1B1FA81F108430221B1EB601FF9
:1034100002D1F948006A01E0F748406A20210222FF
:1034200092FAA2F2B2FA82F2114301F01F020121D4
:10343000914008400028C7D1207800F008000828F3
:1034400046D1E06980B3012090FAA0F1B1FA81F190
:10345000EA4A02EB8101C1F88004FEF75DFA0546F5
:1034600006E0FEF759FA401B642801D9032017E64D
:103470006020022191FAA1F1B1FA81F10843012102
:10348000B1EB601F02D1DC48006810E0602002212F
:1034900091FAA1F1B1FA81F108430221B1EB601F69
:1034A00003D1D548006A02E013E0D348406A6021A6
:1034B000022292FAA2F2B2FA82F2114301F01F0242
:1034C0000121914008400028CBD00120FDF7D9FF11
:1034D00041E00021012090FAA0F0B0FA80F0C74A44
:1034E00002EB8000C0F88014FEF716FA054606E0ED
:1034F000FEF712FA401B642801D90320D0E56020B2
:10350000022191FAA1F1B1FA81F108430121B1EB55
:10351000601F02D1B84800680FE06020022191FAD4
:10352000A1F1B1FA81F108430221B1EB601F02D190
:10353000B148006A01E0B048406A6021022292FA74
:10354000A2F2B2FA82F2114301F01F02012191406E
:1035500008400028CCD1207800F0040004287CD159
:1035600000BFA548C06940F08050A349C861084623
:10357000C06900F08050009000BF00BFA048006804
:1035800040F480709E490860FEF7C6F9054606E0E3
:10359000FEF7C2F9401B642801D9032080E5984852
:1035A000006800F480700028F2D000BF00210120E4
:1035B00090FAA0F0B0FA80F0904A02EB8000C0F8D8
:1035C00000140020042191FAA1F1B1FA81F102EB7B
:1035D0008101C1F8000400BFFEF79EF9054608E02E
:1035E000FEF79AF9401B41F28831884201D9032045
:1035F00056E54020022191FAA1F1B1FA81F1084388
:103600000121B1EB601F02D17B4800680FE0402030
:10361000022191FAA1F1B1FA81F108430221B1EB43
:10362000601F02D17448006A01E07348406A40217B
:10363000022292FAA2F2B2FA82F2114301F01F02C0
:103640000121914008400028CAD100BF2069B0B9CB
:103650000020012191FAA1F100E0B4E0B1FA81F17A
:10366000664A02EB8101C1F80004042191FAA1F13C
:10367000B1FA81F102EB8101C1F800042CE020696C
:10368000012814D10020042191FAA1F1B1FA81F1AD
:103690005A4A02EB8101C1F80004012090FAA0F11E
:1036A000B1FA81F102EB8101C1F8000414E00020BD
:1036B000012191FAA1F1B1FA81F1504A02EB8101A5
:1036C000C1F800040120042191FAA1F1B1FA81F1BD
:1036D00002EB8101C1F8000400BF2069012839D143
:1036E000FEF71AF9054608E0FEF716F9401B41F20D
:1036F0008831884201D90320D2E44020022191FA86
:10370000A1F1B1FA81F108430121B1EB601F02D1AF
:10371000394800680FE04020022191FAA1F1B1FA86
:1037200081F108430221B1EB601F02D13248006AE7
:1037300001E03148406A4021022292FAA2F2B2FA34
:1037400082F2114301F01F0201219140084000283C
:10375000CAD038E0FEF7E0F8054608E0FEF7DCF8EE
:10376000401B41F28831884201D9032098E440206F
:10377000022191FAA1F1B1FA81F108430121B1EBE3
:10378000601F02D11C4800680FE04020022191FA1E
:10379000A1F1B1FA81F108430221B1EB601F02D11E
:1037A0001548006A01E01448406A4021022292FA5A
:1037B000A2F2B2FA82F2114301F01F0201219140FC
:1037C00008400028CAD1E06A00287DD00A48406835
:1037D00000F48030B0F5803F14D10748406800F015
:1037E0000C0008280ED10448C06A00F48030B0F5FF
:1037F000803F07D1012053E4001002400000424204
:1038000000700040E06A022874D1EE48006800F0C1
:10381000805040B1EB48C06A00F0F001606B81421B
:1038200001D001203CE400204FF0806191FAA1F129
:10383000B1FA81F1E44A42F82100FEF76DF805463D
:1038400006E0FEF769F8401B642801D9032027E44D
:103850002020810591FAA1F1B1FA81F108430121FB
:10386000B1EB601F02D1D74800680FE0202081052E
:1038700091FAA1F1B1FA81F108430221B1EB601F85
:1038800002D1D048006A01E0CE48406A20218A0572
:1038900092FAA2F2B2FA82F2114301F01F02012160
:1038A000914008400028CCD1C648C06A20F0F00002
:1038B000616B0843C349C8620846C06A20F470605F
:1038C000216B0843BF4900E089E0C86201218806F6
:1038D00090FAA0F0B0FA80F0BB4A42F82010FEF750
:1038E0001BF8054607E0FEF717F8401B642802D9CD
:1038F00003204EE42CE02020810591FAA1F1B1FAD9
:1039000081F108430121B1EB601F02D1AD4800688D
:103910000FE02020810591FAA1F1B1FA81F108436D
:103920000221B1EB601F02D1A648006A01E0A54860
:10393000406A20218A0592FAA2F2B2FA82F2114379
:1039400001F01F020121914008400028CBD046E041
:103950009C48C06A20F480309A49C86200214FF028
:10396000806090FAA0F0B0FA80F0974A42F82010F8
:10397000FDF7D2FF054606E0FDF7CEFF401B6428A9
:1039800001D9032005E42020810591FAA1F1B1FAC3
:1039900081F108430121B1EB601F02D18948006821
:1039A0000FE02020810591FAA1F1B1FA81F10843DD
:1039B0000221B1EB601F02D18248006A01E0814818
:1039C000406A20218A0592FAA2F2B2FA82F21143E9
:1039D00001F01F020121914008400028CCD1206A4B
:1039E000002872D07748406800F00C0008286DD09D
:1039F000206A02286BD100204FF0807191FAA1F16A
:103A0000B1FA81F1704A42F82100FDF785FF0546C1
:103A100006E0FDF781FF401B642801D9032064E420
:103A20002020010591FAA1F1B1FA81F108430121A9
:103A3000B1EB601F02D1634800680FE02020010550
:103A400091FAA1F1B1FA81F108430221B1EB601FB3
:103A500002D15C48006A01E05A48406A20210A0508
:103A600092FAA2F2B2FA82F2114301F01F0201218E
:103A7000914008400028CCD1606AB0F5803F0DD15C
:103A80005048C06A616808434E49C8620846C06A27
:103A900020F00F00E16808434A49C862D4E90901EF
:103AA00008434849496821F474110843454948606E
:103AB0000120010691FAA1F1B1FA81F1424A42F8DE
:103AC0002100FDF729FF054609E079E076E033E0C3
:103AD000FDF722FF401B642801D9032005E42020C4
:103AE000010591FAA1F1B1FA81F108430121B1EB8D
:103AF000601F02D1334800680FE02020010591FAD1
:103B0000A1F1B1FA81F108430221B1EB601F02D1AA
:103B10002C48006A01E02B48406A20210A0592FAED
:103B2000A2F2B2FA82F2114301F01F020121914088
:103B300008400028CCD043E000204FF0807191FA7B
:103B4000A1F1B1FA81F1204A42F82100FDF7E4FE2B
:103B5000054606E0FDF7E0FE401B642801D903207E
:103B600038E42020010591FAA1F1B1FA81F108436E
:103B70000121B1EB601F02D1124800680FE0202044
:103B8000010591FAA1F1B1FA81F108430221B1EBEB
:103B9000601F02D10B48006A01E00A48406A2021F8
:103BA0000A0592FAA2F2B2FA82F2114301F01F0260
:103BB0000121914008400028CCD101E0012009E416
:103BC000002007E40010024000004242014609B90B
:103BD0000120704700BF087C012801D10220F8E7CE
:103BE0000120087400BF022048740868006820F0B3
:103BF00001000A6810600120487400BF00200874AA
:103C000000BF00BFE5E77047704710B50446206865
:103C1000006800F00100E0B12068406800F0010099
:103C2000B8B120684068C0F3800048B12046FFF773
:103C3000EBFF6FF00400216848600420607404E02A
:103C40002046FFF7E0FF012060746FF0010021685B
:103C5000486010BD042808D14FF0E021096941F007
:103C600004014FF0E022116107E04FF0E021096903
:103C700021F004014FF0E0221161704770B5044655
:103C80002546681EB0F1807F01D301200FE0681E39
:103C90004FF0E02148610F214FF0FF3000F014FF9A
:103CA00000204FF0E021886107200861002070BDEE
:103CB00070477047024600BF92F83800012801D1D2
:103CC00002207047012082F8380000BF022082F8ED
:103CD00039001068406820F0700013685860106860
:103CE00040680B681843136858601068806820F0BB
:103CF000800013689860106880684B6818431368E8
:103D00009860012082F8390000BF002082F8380056
:103D100000BF00BFD5E710B504460CB9012010BDA7
:103D200094F8390028B9002084F83800204600F0C3
:103D30000DF8022084F83900211D206801F0AEF949
:103D4000012084F839000020E9E7000038B5044676
:103D50002D492068884216D100BF2C48C06940F028
:103D600002002A49C8610846C06900F002000090BC
:103D700000BF00BF002205211D20FDF78EFF1D2082
:103D8000FDF77EFF3EE022492068884216D100BF41
:103D90001E48C06940F004001C49C8610846C0695B
:103DA00000F00400009000BF00BF002205211E208B
:103DB000FDF773FF1E20FDF763FF23E01549206820
:103DC00088420DD100BF1148806940F400600F495E
:103DD00088610846806900F40060009000BF11E02F
:103DE0002068B0F1804F0DD100BF0848C06940F095
:103DF00001000649C8610846C06900F00100009052
:103E000000BF00BF38BD00000004004000100240A9
:103E100000080040002C01400146022081F83900D2
:103E20000868006840F001000A681060012081F80D
:103E3000390000207047704710B5044620680069BB
:103E4000C0F34000D8B12068C068C0F34000B0B1F2
:103E50006FF00200216808610120207620688069E7
:103E600000F0030018B12046FFF7E5FF05E020460B
:103E700000F0E7F8204600F067F90020207620687F
:103E80000069C0F38000D8B12068C068C0F380002A
:103E9000B0B16FF00400216808610220207620682C
:103EA000806900F4407018B12046FFF7C4FF05E0B8
:103EB000204600F0C6F8204600F046F900202076A3
:103EC00020680069C0F3C000D8B12068C068C0F3A2
:103ED000C000B0B16FF008002168086104202076AE
:103EE0002068C06900F0030018B12046FFF7A3FF67
:103EF00005E0204600F0A5F8204600F025F9002056
:103F0000207620680069C0F30010D8B12068C0682E
:103F1000C0F30010B0B16FF01000216808610820F4
:103F200020762068C06900F4407018B12046FFF781
:103F300082FF05E0204600F084F8204600F004F9F6
:103F4000002020762068006900F0010058B1206848
:103F5000C06800F0010030B16FF001002168086115
:103F6000204600F0F2F820680069C0F3C01058B194
:103F70002068C068C0F3C01030B16FF080002168C5
:103F800008612046FFF794FE20680069C0F38010A6
:103F900058B12068C068C0F3801030B16FF04000A5
:103FA00021680861204600F0D1F820680069C0F35C
:103FB000401058B12068C068C0F3401030B16FF0B5
:103FC0002000216808612046FFF773FE10BD70B520
:103FD00004460E46154600BF94F83800012801D16A
:103FE000022070BD012084F8380000BF022084F850
:103FF000390035B1042D09D0082D0CD00C2D14D169
:104000000EE03146206801F095F80FE03146206857
:1040100001F0C2F80AE03146206801F0F5F805E049
:104020003146206801F026F900E000BF00BF012002
:1040300084F8390000BF002084F8380000BF00BFBA
:10404000CFE7704710B504460CB9012010BD94F8B5
:10405000390028B9002084F83800204600F00CF818
:10406000022084F83900211D206801F017F8012092
:1040700084F839000020E9E738B504460D49206886
:10408000884215D100BF0C48C06940F004000A49BD
:10409000C8610846C06900F00400009000BF00BF7E
:1040A000002205211E20FDF7F8FD1E20FDF7E8FD8A
:1040B00038BD0000000800400010024030B5044642
:1040C0000D4635B1042D0BD0082D10D00C2D1CD170
:1040D00014E02068C06840F002002168C86015E064
:1040E0002068C06840F004002168C8600EE02068C5
:1040F000C06840F008002168C86007E02068C06818
:1041000040F010002168C86000E000BF00BF01223D
:104110002946206801F000F80A492068884201D148
:10412000012000E0002028B12068406C40F40040ED
:10413000216848642068006840F001002168086038
:10414000002030BD002C01407047704770470000D0
:1041500010B50248FDF7E6FB10BD00006019002015
:1041600010B50446608D032810D12068006820F443
:1041700080602168086020680069C1B2626A501CD2
:1041800060621170608D401E60854DE0608D022878
:1041900040D12068006840F4007021680860206801
:1041A000406820F440702168486020680069C1B20E
:1041B000626A501C60621170608D401E60852068CC
:1041C0000069C1B2626A501C60621170608D401E4D
:1041D0006085232301221549204600F0B7F908B174
:1041E000032010BD2068006820F40060216808608A
:1041F00094F83500422806D1012084F83500204685
:10420000FDF7DAFC10E0012084F835002046FDF7C8
:1042100042FC09E020680069C1B2626A501C606219
:104220001170608D401E60850020DAE702001000EA
:1042300070B504460025658D032D0AD920680069F4
:10424000C1B2626A501C60621170608D401E608550
:104250003AE0022D01D0032D06D12068406820F4F9
:104260008060216848602FE02068406820F4E060AA
:104270002168486020680069C1B2626A501C6062AF
:104280001170608D401E6085232301220F49204656
:1042900000F05CF908B1032070BD2068006820F4CC
:1042A00000602168086094F83500422806D101209A
:1042B00084F835002046FDF77FFC05E0012084F8F6
:1042C00035002046FDF7E7FB0020E5E7020010007F
:1042D000F8B504460D4616462068006840F4806034
:1042E000216808602068006840F4807021680860D8
:1042F000334600224FF00111204600F027F908B1A3
:104300000320F8BD2069B0F5804F05D1E8B240F038
:1043100001002168086144E005F44070F02141EAA1
:10432000E0102168086132462649204600F07DF9F8
:1043300030B1A06B042801D10120E2E70320E0E7BF
:10434000E8B22168086132461E49891F204600F004
:104350006CF930B1A06B042801D10120D1E7032012
:10436000CFE700BF20684069009020688069009016
:1043700000BF00BF2068006840F4807021680860BA
:10438000334600224FF00111204600F0DFF808B15B
:104390000320B6E705F44070F12141EAE0102168FE
:1043A000086132460749891F204600F03EF930B1C6
:1043B000A06B042801D10120A3E70320A1E700207E
:1043C0009FE700000800010010B50446608D48B169
:1043D000616A481C6062087821680861608D401E2F
:1043E000608525E02068406820F4E060216848602E
:1043F0002068006840F400702168086023230122CF
:104400000C49204600F0A2F808B1032010BD94F832
:104410003500322806D1012084F835002046FDF70A
:10442000CCFB05E0012084F835002046FDF734FB85
:104430000020EBE70200100001464A6A501C486267
:1044400010780A681061488D401E4885488D28B94B
:104450000868406820F480600A6850600020704757
:104460000146488D48B108680069C2B24B6A581CC1
:1044700048621A70488D401E4885002070470146EA
:10448000488D48B108680069C2B24B6A581C48623E
:104490001A70488D401E4885002070470146488D9F
:1044A00040B14A6A501C486210780A681061488D11
:1044B000401E4885002070470146488D40B14A6A39
:1044C000501C486210780A681061488D401E48856B
:1044D0000020704708B5014600BF08684069009099
:1044E00008688069009000BF00BF002008BD000080
:1044F00038B504462068406820F4E06021684860D0
:1045000000BF2068406900902068006840F001000A
:1045100021680860009000BF00BF2068006820F498
:10452000806021680860232301220749204600F0AB
:104530000DF808B1032038BD012084F8350020466D
:10454000FDF73CFB0020F6E7020010002DE9F041EA
:1045500005460C4617461E464FF00008FDF7DCF9ED
:10456000804687BB13E0701C88B12EB1FDF7D4F9EB
:10457000A0EB0800B0420AD9012085F8350000BF41
:10458000002085F8340000BF0320BDE8F081C4F3AB
:10459000074001280AD128684069A1B20840A1B2A9
:1045A000884201D101200BE0002009E028688069E1
:1045B000A1B20840A1B2884201D1012000E0002050
:1045C0000028D0D02FE0FFE712E0701C80B12EB1A0
:1045D000FDF7A2F9A0EB0800B04209D9012085F847
:1045E000350000BF002085F8340000BF0320CCE771
:1045F000C4F3074001280AD128684069A1B20840E5
:10460000A1B2884201D101200BE0002009E0286816
:104610008069A1B20840A1B2884201D1012000E026
:1046200000200028D1D10020AFE72DE9F041044659
:104630000D4616460027FDF76FF907462FE0206864
:104640004069C0F38020C0B12068006840F4007069
:10465000216808602068406920F480602168486112
:104660000420A063012084F8350000BF002084F8F6
:10467000340000BF0120BDE8F081701C78B126B184
:10468000FDF74AF9C01BB04209D9012084F8350072
:1046900000BF002084F8340000BF0320EBE7C5F31F
:1046A000074001280AD120684069A9B20840A9B290
:1046B000884201D101200BE0002009E020688069D8
:1046C000A9B20840A9B2884201D1012000E000202F
:1046D0000028B4D00020CEE710B50C480C49086083
:1046E0000420486000210A488160C1604FF4803195
:1046F00001614901416100218161C1610162416241
:104700008162C162FCF7DCFA10BD00000064004069
:104710008C1A002010B50C480C4908601020486025
:1047200000210A488160C1604FF4802101614FF48B
:10473000A001416100218161C16101624162816228
:10474000C162FCF7BDFA10BD00680040CC1A002021
:104750002DE9F04107460E4614469846069D012F66
:1047600002D0022F06D102E06948206003E06948C8
:10477000206000E000BF00BF2046FCF7B5F90D2E19
:1047800074D2DFE806F00714212C3844505C6874BA
:10479000808C9800602060600021E1604FF47021FF
:1047A00021614FF4E0016161002028608FE03C202E
:1047B00060600021E1604FF4202121614FF4E001AD
:1047C00061610120286082E0302060600021E160AA
:1047D00041032161410461610220286077E01820D3
:1047E00060600021E1604FF430212161810461614A
:1047F000032028606BE00C2060600021E1604FF432
:1048000060212161C9006161042028605FE01820F7
:1048100060600021E160410321614FF4800161612A
:104820000520286053E0182060600021E16041030A
:1048300021614FF4001161610620286047E01820D3
:1048400060600021E1604FF48031216100216161ED
:10485000072028603BE0082060600021E1604FF401
:104860004031216109016161286030E02EE00620BD
:1048700060600021E1604FF4802121618900616165
:104880000920286023E0042060600021E1604FF4EB
:1048900040312161090161610A20286017E003208D
:1048A00060600021E160010421614FF480016161D9
:1048B0000B2028600BE0042060600021E160810390
:1048C0002161C10461610C20286000E000BF00BFCD
:1048D000B8F1000F0BD10021A160A161E16121625B
:1048E0006162A162E1622046FCF7EAF90EE0002174
:1048F000A160A161E16121626162A162E162204681
:10490000FCF7DEF900212046FCF74FFCBDE8F08102
:10491000006400400068004000B585B000BF294831
:10492000806940F02000274988610846806900F0CE
:104930002000009000BF00BF00BF0846806940F023
:10494000100088610846806900F01000009000BFE8
:1049500000BF00BF0846806940F008008861084633
:10496000806900F00800009000BF00BF00BF08464B
:10497000806940F0040088610846806900F0040006
:10498000009000BF00BF0320019001200290022090
:10499000049001A90C48FCF72DFE082001900B485B
:1049A00002900120039001A90748FCF723FE002292
:1049B00005210920FDF771F90920FDF761F905B01E
:1049C00000BD000000100240001001400000311046
:1049D00000B589B01448154908602F2048600021AF
:1049E0001248816040F2E731C160FFF794F90F4847
:1049F000FFF728FB00200790089007A90B48FFF756
:104A000059F900210948FFF759FB0020009040F2B6
:104A1000E7300190002269460448FFF7D8FA0348BE
:104A2000FFF7FAF909B000BD00040040141A002095
:104A300000B589B01148124908602F204860002154
:104A40000F48816040F2E731C160FFF7FBFA0020B8
:104A50000790089007A90A48FFF72CF90021084899
:104A6000FFF72CFB0020009040F2E730019000227D
:104A700069460348FFF7ABFA09B000BD00080040E3
:104A8000501A002010B500220749084801F097FA93
:104A90000749064801F0ABFC0649044800F0DCFF7A
:104AA000024801F06DFD10BD1801002044220020D5
:104AB000100000205C07002002480068C0F30220BC
:104AC000704700000CED00E010B5002807DA0A0777
:104AD000140E054A00F00F031B1FD45403E00A070D
:104AE000130E024A135410BD18ED00E000E400E07C
:104AF00010B50248FDF7E3FA10BD0000801C00204D
:104B00002DE9F04780460E46D8F8007000240025B5
:104B1000A146A246C6EBC60108F1280000EB8104BD
:104B2000D4E90501451AA068A84200D2A568E81C8E
:104B3000C11700EB91714FEAA10918E0D4E9050112
:104B4000451AA068A84200D2A568E81CC11700EB6E
:104B500091714FEAA109ABB2F2B23846E16802F0B6
:104B600085FBE0682844E060A0692844A06107F55F
:104B7000106000EB4610806980B2484506D9D4E940
:104B80000510884202D260690028D7D1002D0ADCC6
:104B9000012000FA06FA40F63400C05920EA0A0063
:104BA00040F63401C8510020BDE8F0872DE9F05FE0
:104BB00004464FF0000AD146CB462078412846D122
:104BC0006078542843D1A0782B2840D1E078413830
:104BD000C7B2002521E007EB470000EBC7001D49E5
:104BE00001EB800050F825804046FBF743FB06466A
:104BF000324641462046FBF744FB68B9B9F1000F45
:104C000004D106F0FF0905F0FF0B05E0B14503DA1A
:104C100006F0FF0905F0FF0B6D1C07EB470000EBEA
:104C2000C7000C4901EB800050F825000028D2D1C4
:104C3000B9F1000F0AD007EB470000EBC7000649A7
:104C4000084410F80BA05046BDE8F09F00BF00BF1D
:104C5000FAE70000100E00208812002010B503486B
:104C6000FEF7D3FF0148FEF7B1FF10BD0C1B00207B
:104C700070B505460C46142200212846FCF7A6F91B
:104C80000649087008460078032805D008460078D1
:104C9000012801D00120207070BD0000320D0020DD
:104CA00038B5002500247348007800286FD1724879
:104CB0000090724802780078401C704B1870704861
:104CC000815C00236F4A0120FFF742FD00BF6E4860
:104CD0000068401C6C49086066496A48FFF7C8FFD5
:104CE000694800680F281AD1644800780D2804D15B
:104CF000002062490870601CC4B25F4800905F48A1
:104D000002780078401C5D4B18705D48815C002380
:104D10005C4A0120FFF71CFD00205B4908605548F4
:104D2000007808B9032CD2D100205749086000242C
:104D30005048007828B1012502215448FCF7E8FDCD
:104D400025E04D4800904E48017800234D4A01204F
:104D5000FFF7FEFC00204849086002214B48FCF7A1
:104D6000D7FDFA20FCF78DFB02214848FCF7D0FD67
:104D7000FA20FCF786FB02214448FCF7C9FDFA2023
:104D8000FCF77FFB02214148FCF7C2FD04254048A7
:104D9000007800286CD1394908703E4800900846D8
:104DA00002780078401C0B4618703548815C00235F
:104DB000394A0220FFF7CCFC00BF33480068401C92
:104DC0003149086032493448FFF752FF2E480068E5
:104DD0000F281AD1294800780D2804D1002027492E
:104DE0000870601CC4B22B480090244802780078F8
:104DF000401C224B18702248815C0023264A022066
:104E0000FFF7A6FC0020204908602148007808B977
:104E1000032CD2D100201C4908601D48007810B135
:104E200045F0020524E01B48009015480178002356
:104E3000194A0220FFF78CFC002016490860012166
:104E40001248FCF765FDFA20FCF71BFB01210F4817
:104E5000FCF75EFDFA20FCF714FB01210B48FCF780
:104E600057FDFA20FCF70DFB01210848FCF750FD27
:104E7000284638BD240D0020640D00206C0D002054
:104E80004F0D00208C1A0020600D00200010014002
:104E9000250D0020680D0020CC1A002010B5FCF76D
:104EA00099FE02F0E2FC10BD10B59CB009200E90F6
:104EB000012010901190159000200F900220169064
:104EC000C1031791C1041891002019900EA8FEF794
:104ED00099F80520099002200A9000200B904FF4C9
:104EE00080600C9000200D90012109A8FDF7A8FD1D
:104EF000112001904FF4007002904003089001A827
:104F0000FDF74CFCFDF7B6FF4FF47A71B0FBF1F4FE
:104F10002046FEF7B3FE0420FEF79CFE01200107A9
:104F200091FAA1F1B1FA81F1024A42F821001CB0D4
:104F300010BD0000000042421448006840F001002B
:104F40001249086008464068114908400F49486006
:104F5000084600680F4908400C4908600846006888
:104F600020F4802008600846406820F4FE00486075
:104F70000846006820F0A05008604FF47F00886069
:104F80000020C862C803044908607047001002404E
:104F90000000FFF0FFFFF6FE08ED00E010B5154839
:104FA000FEF74AFF14480068401C13490860084691
:104FB0000068B0F57A7F1CD1002008600F480068B7
:104FC000401C0E49086002210D48FCF7A1FC0B486B
:104FD00000683C280DD10020084908600948006895
:104FE000401C08490860084600683C2801D10020A0
:104FF000086010BD141A0020340700203807002074
:10500000001001403C0700201CB5002001900090DA
:105010001D48FEF711FF1D48006830B901AA1B4961
:105020001B48006803F0E0FB0CE018480068401ED5
:105030001649086030B900236A46194615480068C9
:1050400003F078FB1448008820B113480088401E04
:10505000114908801048408888B10F48008870B90D
:105060000D484088401E0C494880084680880880CA
:1050700000236A4619460748006803F05BFB019865
:1050800008B102F0E1FF1CBD501A002040070020CB
:10509000900D0020000E0020180D00200022026854
:1050A000194B98420BD0B0F1804F08D0174B984263
:1050B00005D0174B984202D0164B984203D122F0EC
:1050C00070024B681A43104B98420BD0B0F1804FDE
:1050D00008D00E4B984205D00D4B984202D00D4B94
:1050E000984203D122F44072CB681A4302608B6865
:1050F000C3620B688362044B984201D10B6903635E
:105100000123436170470000002C0140000400406F
:1051100000080040000C004030B50023012404FAD0
:1051200001F3046A9C430462046A02FA01F52C4309
:10513000046230BD30B5002400220023056A25F04A
:1051400001050562026A4368846924F0700424F052
:1051500003040D682C4322F002028D682A430D4D92
:10516000A84206D100BF22F00802CD682A4322F0EF
:105170000402084DA84207D123F4807323F400737E
:105180004D692B438D692B43436084614D684563B2
:10519000026230BD002C014030B500240022002303
:1051A000056A25F010050562026A4368846924F4E3
:1051B000E04424F440740D6844EA052422F02002FF
:1051C0008D6842EA05120F4DA84207D100BF22F0B8
:1051D0008002CD6842EA051222F04002094DA84241
:1051E00009D123F4806323F400634D6943EA850306
:1051F0008D6943EA8503436084614D68856302627B
:1052000030BD0000002C014030B5002400220023F6
:10521000056A25F480750562026A4368C46924F052
:10522000700424F003040D682C4322F400728D688E
:1052300042EA05220E4DA84207D100BF22F40062C7
:10524000CD6842EA052222F48062094DA84209D1C4
:1052500023F4805323F400534D6943EA05138D6909
:1052600043EA05134360C4614D68C563026230BD03
:10527000002C014030B5002200230024056A25F4EB
:1052800080550562036A4468C26922F4E04222F450
:1052900040720D6842EA052223F400538D6843EA08
:1052A0000533074DA84204D124F480444D6944EAF3
:1052B00085144460C2614D680564036230BD00001E
:1052C000002C014098B0FFF7DDFB4FF000090020F3
:1052D0000D900E9034216846FAF7C1FF4FF47A70B2
:1052E000FCF7CFF800BF00231A460FA95748006803
:1052F00003F096F80646012E70D100259DF83C007B
:105300008DF8000020208DF80100072035E010996D
:1053100001F00F010DAA11540DA9095C0A2923DB24
:105320000DA9095C0A3906291CD2DFE801F0030740
:105330000B0F131741210DAA115414E042210DAA9D
:10534000115410E043210DAA11540CE044210DAA80
:10535000115408E045210DAA115404E046210DAA7C
:10536000115400E000BF04E00DA9095C30310DAA22
:105370001154109909091091401E0028C7DA022023
:1053800005E0811E0DAA515C0DF80010401C0A2892
:10539000F7DB20208DF80A000B25002044E011A93E
:1053A000095C01F0F00711A9095C01F00F083C4607
:1053B0002411002121E00A2C16DBA4F10A02062A9E
:1053C00011D2DFE802F0030507090C0E41240AE0C0
:1053D000422408E0432406E0442404E032E045246B
:1053E00001E0462400BF02E004F13002D4B22A46B4
:1053F0006D1C0DF802404446491C0229DBDB222DBE
:1054000005D02D2329466D1C0DF801300BE0082135
:1054100007E011AA12F801C02A466D1C0DF802C05F
:10542000491C1B29F5DB401C0828B8DB00234A4631
:1054300069460748006803F0DCF802210548FCF7DC
:1054400067FA00BF012002F0FFF94CE77C0D002055
:10545000800D0020001001401CB53220019000BFDB
:105460004FF01C0A00231A46C349C448006802F0E2
:10547000D7FF0746012F74D1BF480078412875D166
:10548000BD48FFF793FBBE49087008460078012825
:1054900002D0022868D160E0B748807A00F00300AB
:1054A000B8490870B448C57AA5F141000D2822D248
:1054B000DFE800F007090B0D0F11131517191B1D5D
:1054C0001F00002419E0012417E0022415E0032442
:1054D00013E0042411E005240FE006240DE0072466
:1054E0000BE0082409E0092407E00A2405E00B2466
:1054F00003E00C2401E00C2400BF00BFA1480078A9
:1055000001280FD1A0480078A8420BD09E48057012
:105510009E489C490090087801239D4A2146FFF748
:1055200017F912E09748007802280ED199480078C0
:10553000A8420AD097480570974892490090087889
:105540000123964A2146FFF703F900239449954821
:10555000019A006803F04DF800BF0020924988715D
:1055600003E005E102E0FFE700BF00E182480078C8
:1055700000F00300834908707F4890F8230000F092
:105580000F0008617C4890F82550A5F141000D28D6
:1055900022D2DFE800F007090B0D0F1113151719C0
:1055A0001B1D1F00002419E0012417E0022415E050
:1055B000032413E0042411E005240FE006240DE089
:1055C00007240BE0082409E0092407E00A2405E089
:1055D0000B2403E00C2401E00C2400BF00BF694849
:1055E000007801280FD168480078A8420BD066489F
:1055F000057066486349009008780123644A214693
:10560000FFF7A6F812E05F48007802280ED1614843
:105610000078A8420AD05F4805705F485949009059
:10562000087801235D4A2146FFF792F84FF00408FD
:10563000002600205349486002202DE04E4911F811
:105640000090A9F14101062916D2DFE801F0030616
:10565000090C0F124FF00A0911E04FF00B090EE090
:105660004FF00C090BE04FF00D0908E04FF00E0968
:1056700005E04FF00F0902E009F00F0900BF00BF7D
:105680004049496809FA0AF211433E4A5160AAF1B9
:10569000040101F0FF0A401C0A28CFDB3948002131
:1056A0008160C1600B2044E03349095C432914D078
:1056B00006DC2D291DD0412909D042291DD109E040
:1056C00044290DD045290ED0462916D10EE04FF0C1
:1056D0000A0B17E04FF00B0B14E04FF00C0B11E02E
:1056E0004FF00D0B0EE04FF00E0B0BE04FF00F0BD9
:1056F00008E04FF0FF0B761C04E01F49095C01F045
:105700000F0B00BF00BFBBF1FF0F11D01D490831C7
:10571000895D0BFA08F21143CAB21A4908318A5559
:10572000B8F1040F02D14FF0000801E04FF0040877
:10573000401C1149095C2029B6D100235A1E114989
:105740001A48006802F055FF1948007870B100232C
:1057500018490A48019A006802F04BFF30B1002056
:10576000134908701448006800F059F900BF00BFE1
:10577000012002F069F873E6491C0020840D002026
:105780005C0D0020201B0020300D0020640D002047
:105790008C1A0020310D0020680D0020CC1A00204A
:1057A0003B0D0020800D0020060D00208C0D0020F8
:1057B0002B0D0020B31800205807002086B000BF32
:1057C0000023324601A91A48006802F029FE044667
:1057D000012C28D101211748FCF79AF816490598A1
:1057E000086102984860029808600020886000BF45
:1057F00006E003A90A5C1049143141F82020401C3E
:105800000828F6DB9DF80400012801D10B4D00E0CB
:105810000B4D094828630120FBF733FE4FF47A71E2
:105820002846FBF703FD012002F00EF8C8E7000050
:105830008C0D002000100140341B00208C1A002029
:10584000CC1A00208EB000BF0023322269460948DE
:10585000006802F0E5FD0446012C07D135216846B9
:10586000FAF78AFF38216846FAF7F9FC012001F0BF
:10587000EBFFE9E7800D002002460B46D2F8181234
:10588000D2F8180218B10020C1F8140270470220A3
:10589000FCE770B504460E46D4F81852314620464F
:1058A00000F06EFCC5F80C02D4F8180248B1D5F827
:1058B0000402D4F81C12CA6805F503719047002051
:1058C00070BD0220FCE770B504460E46002581211C
:1058D000204600F097FB0121204600F093FB822137
:1058E000204600F08FFBD4F8180250B1D4F81C12F7
:1058F00048688047D4F8180200F045FF0020C4F83B
:105900001802284670BD70B50546D5F81842D5F87E
:105910001C0278B194F80002FF280BD094F8012201
:1059200094F80002D5F81C128B6821469847FF2096
:1059300084F80002002070BD01460A20088001485A
:105940007047000004000020014643200880014801
:10595000704700008C000020014643200880014869
:10596000704700004800002001464320088001489D
:1059700070470000D00000202DE9F04104460F469A
:105980000026207C70B94FF400730222812120464A
:1059900000F04EFC4FF4007302220121204600F07B
:1059A00047FC0BE0402302228121204600F040FC0E
:1059B000402302220121204600F03AFC0823032262
:1059C0008221204600F034FC4FF4077000F0E2FE24
:1059D000C4F81802D4F8180208B901261CE0D4F85B
:1059E0001852D4F81C12086880470020C5F8140229
:1059F000C5F81802207C40B94FF4007301212046FD
:105A0000D5F8042200F024FC06E0402301212046C2
:105A1000D5F8042200F01CFC3046BDE8F08170B5DA
:105A20000446D4F81852D4F8180298B1207C40B932
:105A30004FF4007301212046D5F8042200F008FC41
:105A400006E0402301212046D5F8042200F000FCA6
:105A5000002070BD0220FCE70246022011B1C2F80E
:105A60001C12002070470246D2F81832C3F8041204
:105A70000020704710B50346D3F81842C4F8081246
:105A8000C4F81022002010BD70B505460C46D5F8AC
:105A90001862207800F06000202826D1E088E0B16C
:105AA000207800F0800060B1E2886078D5F81C12A0
:105AB0008B6831469847E2883146284600F0A7F8BF
:105AC00012E0607886F80002A07986F80102E28888
:105AD0003146284600F07AF806E06078D5F81C12C6
