:020000040800F2
:10000000B02E0020090200081102000813020008A7
:10001000150200081702000819020008000000007D
:100020000000000000000000000000006501000862
:100030001D02000800000000A9010008914C000802
:1000400023020008230200082302000835490008A3
:1000500023020008230200082302000823020008EC
:1000600023020008AD08000823020008230200084C
:1000700023020008230200082302000823020008CC
:1000800023020008230200082302000823020008BC
:100090001D030008230200082302000823020008B1
:1000A000230200082302000823020008230200089C
:1000B00023020008914D00082302000823020008D3
:1000C000230200082302000823020008230200087C
:1000D000230200082302000823020008230200086C
:1000E0002302000823020008230200080000000089
:1000F0000000000000000000000000000000000000
:100100000000000000000000230200082302000895
:10011000230200082302000823020008230200082B
:10012000230200082302000823020008230200081B
:100130002302000800000000000000002302000865
:10014000BD030008230200082302000859470008E5
:10015000DFF80CD000F0A4F80048004785730008D1
:10016000B02E0020204B19680868B0E8F00F80F32B
:100170000988BFF36F8F4FF0000080F311884EF0B5
:100180000D0E70470000000006480068006880F30C
:10019000088862B661B6BFF34F8FBFF36F8F00DF81
:1001A00000BF00BF08ED00E0EFF30980BFF36F8FE1
:1001B0000D4B1A6820E9F00F106008B54FF05000A1
:1001C00080F3118807F0E4FE4FF0000080F31188FF
:1001D000BDE8084019680868B0E8F00F80F30988A6
:1001E000BFF36F8F704700BF9C020020EFF31180B8
:1001F0004FF0500181F31188704780F311887047E8
:10020000EFF3058070470000064880470648004726
:10021000FEE7FEE7FEE7FEE7FEE7FEE7FEE7FEE7B6
:10022000FEE7FEE72D4D00085101000840EA0103FA
:100230009B0703D009E008C9121F08C0042AFAD29C
:1002400003E011F8013B00F8013B521EF9D2704760
:10025000D2B201E000F8012B491EFBD27047002208
:10026000F6E710B513460A4604461946FFF7F0FFB5
:10027000204610BD30B50B46014600202022012447
:1002800009E021FA02F59D4205D303FA02F5491B64
:1002900004FA02F52844151EA2F10102F1DC30BD7A
:1002A000064C074D06E0E06840F0010394E80700C3
:1002B00098471034AC42F6D3FFF74EFF108A00087F
:1002C000308A000870B58C1810F8015B15F0070330
:1002D00001D110F8013B2A1106D110F8012B03E0DF
:1002E00010F8016B01F8016B5B1EF9D12B0705D4E7
:1002F0000023521E0DD401F8013BFAE710F8013B30
:10030000CB1A921C03E013F8015B01F8015B521E4B
:10031000F9D5A142D8D3002070BD000010B500204F
:100320001F4908601F4800F0BDFB31201E490870BE
:100330001E4800684860084600218160C1600020B6
:1003400007E01A49143111F82020174908310A54DE
:10035000401C164909698142F3D80C211248083023
:1003600000F0E6F92021104801741048007C30307C
:10037000C1B20D484174202181740D480D490968AE
:10038000415C0948C1740023054A01460A480068D7
:1003900008F056F80021034800F0CFFE10BD000021
:1003A0009801002038050020F0040020E806002015
:1003B0007F010020C8010020E001002010B50020CE
:1003C0001F4908601F4800F06DFB32201E4908706D
:1003D0001E4800684860084600218160C160002016
:1003E00007E01A49143111F82020174908310A543E
:1003F000401C164909698142F3D80C211248083083
:1004000000F096F92021104801741048007C30302B
:10041000C1B20D484174202181740D480D4909680D
:10042000415C0948C1740023054A01460A48006836
:1004300008F006F80021034800F07FFE10BD000020
:100440009C010020780500201405002024070020CE
:100450007F010020CC010020E001002070B504469F
:100460000D46206800F5D87000EB0510006800F01C
:100470000400616B8860606B806860B9206800F57B
:10048000D87000EB0510006840F2FF7101EA50508F
:10049000616B08600BE0206800F5D87000EB051078
:1004A00000686FF0604101EAD000616B486020682D
:1004B00000F5D87000EB0510006800F00200616BD9
:1004C000C860206800F5D87000EB0510406800F0A7
:1004D0000F00616B0861206800F5D87000EB051013
:1004E0004068C0F30720616B4863206800F5D8704E
:1004F00000EB05108068C0B2616B4861206800F5B0
:10050000D87000EB05108068C0F30721606B816133
:10051000206800F5D87000EB05108068C0F3074133
:10052000606BC161206800F5D87000EB0510806831
:10053000000E616B0862206800F5D87000EB0510B2
:10054000C068C1B2606B4162206800F5D87000EBF2
:100550000510C068C0F30721606B8162206800F558
:10056000D87000EB0510C068C0F30741606BC16232
:10057000206800F5D87000EB0510C068000E616BB4
:10058000086365B92068C06840F020002168C86031
:100590002068406920F00200216848610BE0206873
:1005A000006940F02000216808612068406920F05F
:1005B00010002168486194F83900222805D120688C
:1005C000406920F40F402168486194F839003228CE
:1005D00003D1122084F8390002E0012084F83900A8
:1005E000204600F0EAFD002070BD10B504462068EA
:1005F000406920F001002168486194F83900122810
:1006000005D12068406920F40F402168486194F8C2
:100610003900322803D1222084F8390002E0012079
:1006200084F83900204600F0F3FE002010BD034698
:10063000042B15D007DC7BB1012B0ED0022B0DD083
:10064000032B12D10BE0202B0BD0212B0AD0222B15
:1006500009D0232B09D107E008E007E006E005E018
:1006600004E003E002E001E000E000BF00BF002082
:10067000704700207047000010B50848084908601E
:10068000002208490648006805F076F80649044843
:10069000006805F06AF8002010BD0000900D0020F1
:1006A000600200207F1100203F11002070B5054638
:1006B0000C4600200E49086029460E482268FFF7C4
:1006C000B5FD00230A4A0B490B48006807F0B8FE45
:1006D00040B9012009490870064909482268FFF716
:1006E000A5FD03E00748006805F01BF8002070BD79
:1006F00074020020BF100020E8010020AF0100209C
:10070000FF1000206002002070B504460D46002650
:100710002A4621460548006805F02EF8034800687F
:1007200005F069F80646304670BD00006002002002
:100730002DE9FF4104460D46002000905548006811
:1007400055490860084655A10268684606F028FC2D
:100750000746012F09D19DF8006030208DF8000078
:100760008DF801008DF802600CE0022F0AD19DF88F
:1007700000609DF8018030208DF800008DF8016048
:100780008DF80280464845A1026803A806F008FCDF
:100790000746012F06D19DF80C6030208DF80C0023
:1007A0008DF80D609DF80C2028466D1C22549DF894
:1007B0000D2028466D1C22542E2228466D1C2254E2
:1007C000384836A1026802A806F0EAFB0746012F66
:1007D00006D19DF8086030208DF808008DF809607A
:1007E0009DF8082028466D1C22549DF809202846B3
:1007F0006D1C22542E2228466D1C22542A4827A103
:10080000026801A806F0CCFB0746012F09D19DF82C
:10081000046030208DF804008DF805008DF8066026
:100820000CE0022F0AD19DF804609DF8058030206D
:100830008DF804008DF805608DF806809DF8042081
:1008400028466D1C22549DF8052028466D1C225414
:100850009DF8062028466D1C22542E2228466D1C29
:1008600022549DF8002028466D1C22549DF801203A
:1008700028466D1C22549DF8022028466D1C2254E7
:100880000D2228466D1C22540A2228466D1C225433
:10089000BDE8FF8124040040D80100202564000049
:1008A000900100208C0100208801002010B5092053
:1008B00001F048F8082000F057FE002010490860B9
:1008C0001048007830B101200F49087000200D4910
:1008D000087005E001200B49087000200A490870E3
:1008E0000023074A19460948006807F0A9FD044893
:1008F0000068012802D100070549086010BD00000A
:10090000A0010020AA010020AB0100205C02002011
:1009100004ED00E000B58BB000200A9001200990A2
:10092000002005900190029003900490079006909B
:10093000089001A9054800F00DF80E200A9001A9C1
:10094000034800F007F80BB000BD00003805002098
:100950007805002030B5024600230C7D012000FA06
:1009600004F31068D0F8000220F47C5001254C6A92
:1009700045EA042420431468C4F800021068D0F843
:100980001C0298431468C4F81C02C869E8B91068CE
:10099000D0F80C0298431468C4F80C02888880B21E
:1009A0008C8940EA0444106800F510704D6940F8E5
:1009B0003540088880B20C8940EA0444106800F58C
:1009C00010704D6900EBC5004460C86901281DD155
:1009D0001068D0F80C0218431468C4F80C02888818
:1009E00080B20C8840EA0444106800F510704D692C
:1009F00040F83540888980B20C8940EA0444106888
:100A000000F510704D6900EBC5004460886938B985
:100A10001068D0F8040298431468C4F8040206E091
:100A20001068D0F8040218431468C4F80402086976
:100A300038B91068D0F8140298431468C4F8140246
:100A400006E01068D0F8140218431468C4F81402C1
:100A5000086A012806D11068D0F81C0218431468EF
:100A6000C4F81C021068D0F8000220F001001468DD
:100A7000C4F80002002030BD10B504460CB90120B6
:100A800010BD022084F83900204600F087F90020CC
:100A900084F8390000BF84F8380000BF00BFEFE7DA
:100AA0007047000010B504462068406900F001005E
:100AB00000B32068806863490840884201D1012062
:100AC00000E0002098B9206880685F4908408842AB
:100AD00001D1012000E0002048B9206880685B490E
:100AE0000840884201D1012000E0002010B12046DA
:100AF000FFF77BFD20684069C0F3400040B12068EB
:100B0000C06800F0030018B100212046FFF7A6FCE2
:100B100020684069C0F3001040B12068006900F00F
:100B2000030018B101212046FFF798FC2068806976
:100B300000F0010068B120684069C0F3002040B1B6
:100B400020684069C0F3C03018B1E06B40F001008C
:100B5000E06320688069C0F3400068B120684069A4
:100B6000C0F3402040B120684069C0F3C03018B1E4
:100B7000E06B40F00200E06320688069C0F3800011
:100B800068B120684069C0F3802040B120684069A6
:100B9000C0F3C03018B1E06B40F00400E06320689F
:100BA000806900F0700080B320684069C0F3C02005
:100BB00058B320684069C0F3C03030B32068806902
:100BC00000F0700040281BD006DC102809D0202837
:100BD0000CD0302824D10EE0502817D060281FD127
:100BE00019E0E06B40F00800E0631AE0E06B40F0D1
:100BF0001000E06315E0E06B40F02000E06310E0DF
:100C0000E06B40F04000E0630BE011E0E06B40F08F
:100C10008000E06305E0E06B40F48070E06300E09A
:100C200000BF00BF2068806920F0700021688861E3
:100C3000E06B28B1012084F839002046FFF730FF2F
:100C400010BD0000030000040003000800000310B2
:100C50002DE9F041044600270026002514B90120A3
:100C6000BDE8F08194F8390028B9002084F83800F4
:100C7000204600F0DBF8022084F839002068006884
:100C800020F00200216808602068006840F0010040
:100C90002168086000F008FE06460EE000F004FE41
:100CA000801B0A2809D9032084F8390000BF0020DE
:100CB00084F8380000BF0320D2E72068406800F0C5
:100CC00001000028EAD02068406800F001000028F8
:100CD00055D0A069012801D145F08005E0690128BF
:100CE00001D145F04005206A012801D145F02005D9
:100CF000606A012801D145F01005A06A012801D1E0
:100D000045F00805E06A012801D145F00405206896
:100D1000006820F0FC00284321680860D4E9020143
:100D2000084321690843616908436168491E084313
:100D30002168C8612068006820F00100216808600F
:100D400000F0B2FD06460EE000F0AEFD801B0A2862
:100D500009D9032084F8390000BF002084F8380046
:100D600000BF03207CE72068406800F001000028F5
:100D7000EAD02068406800F0010000B10127012F8F
:100D800006D10020E063012084F83900002067E7E5
:100D9000042084F83900012062E7000010B5044601
:100DA0001D492068884216D11C480068401E1B4916
:100DB00008600846006828B91948C06920F000702A
:100DC0001749C8614FF44071164800F02FFB1420FA
:100DD00000F0B8FD1FE01449206888421BD110487C
:100DE000C06920F080600E49C8610C480068401E50
:100DF0000A4908600846006828B90948C06920F017
:100E000000700749C8614FF44051064800F00EFBDE
:100E1000402000F097FD10BD006400401401002048
:100E200000100240000C01400068004010B586B080
:100E300004464449206888423CD143480068401C2D
:100E4000414908600846006801280DD100BF3F48AD
:100E5000C06940F000703D49C8610846C06900F0B3
:100E60000070019000BF00BF4FF48070029000201E
:100E70000390049002A9364800F084FB4FF4007000
:100E80000290022003900320059002A9304800F050
:100E900079FB3048406820F4C04040F480402D4940
:100EA000486000220521142000F067FD142000F0A6
:100EB00057FD45E028492068884241D100BF2348BA
:100EC000C06940F080602149C8610846C06900F0EF
:100ED0008060019000BF00BF1B480068401C1A4999
:100EE00008600846006801280DD100BF1748C06996
:100EF00040F000701549C8610846C06900F00070F4
:100F0000019000BF00BF4FF480500290002003907A
:100F1000049002A90E4800F035FB4FF400500290F7
:100F2000022003900320059002A9094800F02AFB43
:100F300000220521402000F020FD402000F010FD9F
:100F400006B010BD006400401401002000100240F3
:100F5000000C014000000140006800402DE9F04114
:100F600004460D461646002700BF94F838000128B5
:100F700002D10220BDE8F081012084F8380000BFD2
:100F800094F83900122803D1322084F8390002E0A5
:100F9000222084F8390000F087FC074611E0701C1D
:100FA00078B126B100F080FCC01BB04209D9032003
:100FB00084F8390000BF002084F8380000BF032007
:100FC000D8E725B92068C06800F0030003E0206876
:100FD000006900F003000028E1D0206800F5D87017
:100FE00000EB0510006800F00400616B8860606B26
:100FF000806860B9206800F5D87000EB05100068C3
:1010000040F2FF7101EA5050616B08600BE020680C
:1010100000F5D87000EB051000686FF0604101EA40
:10102000D000616B4860206800F5D87000EB0510B7
:10103000006800F00200616BC860206800F5D8709D
:1010400000EB0510406800F00F00616B086120683C
:1010500000F5D87000EB05104068C0F30720616B05
:101060004863206800F5D87000EB05108068C0B2B6
:10107000616B4861206800F5D87000EB051080684E
:10108000C0F30721606B8161206800F5D87000EB28
:1010900005108068C0F30741606BC161206800F5EE
:1010A000D87000EB05108068000E616B0862206844
:1010B00000F5D87000EB0510C068C1B2606B4162EA
:1010C000206800F5D87000EB0510C068C0F3072158
:1010D000606B8162206800F5D87000EB0510C06875
:1010E000C0F30741606BC162206800F5D87000EB67
:1010F0000510C068000E616B086335B92068C068D0
:1011000040F020002168C86005E02068006940F0D8
:1011100020002168086194F83900322803D1122098
:1011200084F8390002E0012084F8390000BF002073
:1011300084F8380000BF00BF1CE7024692F839006F
:10114000012803D092F83900122832D100BF92F85A
:101150003800012801D102207047012082F83800B0
:1011600000BF92F83900122803D1322082F83900EA
:1011700002E0222082F839000020D0631068406924
:1011800048F6017318431368586100BF002082F8C5
:10119000380000BF31B91068406940F002001368A0
:1011A000586108E01068406940F010001368586109
:1011B00001E00220D0E70020CEE770472DE9F041A2
:1011C00004460E460425002700BF94F83800012885
:1011D00002D10220BDE8F081012084F8380000BF70
:1011E00094F83900222803D1322084F8390002E033
:1011F000122084F839002068806800F0806008B10F
:1012000000250EE02068806800F0006008B101252C
:1012100007E02068806800F0805008B1022500E0F7
:101220000425042D7DD0206800F5C07000EB05106A
:10123000006800F00101206800F5C07000EB0510A7
:101240000160206B806898B9206800F5C07000EBE1
:1012500005100068216BC968226B128841EA42516F
:101260000843216801F5C07101EB0511086015E024
:10127000206800F5C07000EB05100068216B8968DC
:10128000226B526841EAC201226BD26811430843C3
:10129000216801F5C07101EB05110860206B007C2D
:1012A00000F00F00216B0861206800F5C07000EBB2
:1012B0000510406820F00F01206800F5C07000EBB9
:1012C00005104160206800F5C07000EB0510406813
:1012D000216B09690843216801F5C07101EB051113
:1012E0004860206B90F820000106206B808B41EA5B
:1012F0000041206B806941EA0021206B4069014375
:10130000206800F5C07000EB05108160206B90F83C
:1013100030000106206B808D41EA0041206B806A1D
:1013200000E065E041EA0020216B496A084321683A
:1013300001F5C07101EB0511C860206800F5C070AF
:1013400000EB0510006840F00101206800F5C07056
:1013500000EB0510016000F0A7FA074611E0701CD1
:1013600078B126B100F0A0FAC01BB04209D9032021
:1013700084F8390000BF002084F8380000BF032043
:1013800028E74DB9206880681E490840884201D18D
:10139000012016E0002014E0012D09D120688068AA
:1013A00019490840884201D101200AE0002008E0E4
:1013B0002068806815490840884201D1012000E07A
:1013C00000200028CBD094F83900322807D1222001
:1013D00084F8390000BF002084F8380002E00120C2
:1013E00084F8390000BF002084F8380000BFF1E61F
:1013F000042084F8390000BF002084F8380000BFC2
:101400000120E7E6030000040003000800000310C9
:10141000704731B5002400F047FA044600BF00F0E1
:1014200043FA001B00998842F9D338BD2DE9F041F9
:1014300002460B4600200021002400267FE0012701
:10144000874007EA0301002978D0FF2901D8174611
:1014500000E0171D3D46FF2901D8870002E0A0F1FA
:101460000807BF003E462F684FF00F0C0CFA06FC31
:1014700027EA0C074FF0040C0CFA06FC47EA0C07AD
:101480002F60D7688F43D760304F4FEA900C57F8E2
:101490002C4087074FEA177C0F2707FA0CF73C40D0
:1014A0002B4FBA4201D100270FE02A4FBA4201D197
:1014B00001270AE0284FBA4201D1022705E0274F51
:1014C000BA4201D1032700E004274FEA807C4FEAAB
:1014D0001C7C07FA0CF7A74230D187074FEA177C2C
:1014E0000F2707FA0CF4194F4FEA900C57F82C709D
:1014F000A743DFF858C04FEA90084CF82870184FFF
:101500003F688F43DFF858C0CCF800700CF1040737
:101510003F688F430CF1040CCCF800700CF1040709
:101520003F688F430CF1040CCCF800700CF10407F9
:101530003F688F430CF1040CCCF80070401C23FA78
:1015400000F7002F7FF47BAFBDE8F0810800014079
:1015500000080140000C014000100140001401404F
:10156000000401407047000010B5044604480068BC
:10157000204020B1024804602046FFF7F3FF10BD71
:10158000140401402DE9F8470346002400200025FB
:101590008446002700226EE14FF0010808FA02F4A9
:1015A000D1F8008008EA0400A0427DD1DFF8D0A283
:1015B000D1F80480A8EB0A09D0453AD014DCB8F180
:1015C000030F50D009DCB8F1000F31D0B8F1010F92
:1015D0001CD0B8F1020F49D120E0B8F1110F18D09A
:1015E000B8F1120F42D11EE0B9F5881F25D006DCF4
:1015F000B9F5803F20D0B9F5801F37D11AE0B9F591
:10160000001F18D0B9F5041F30D117E0D1F80CC075
:101610002DE0D1F80C8008F1040C28E0D1F80C8002
:1016200008F1080C23E0D1F80C8008F10C0C1EE046
:1016300000BF00BF00BF00BF00BF00BFD1F80880DF
:10164000B8F1000F02D14FF0040C0BE0D1F8088084
:10165000B8F1010F03D14FF0080C1C6102E04FF00C
:10166000080C5C6103E04FF0000C00E000BF00BF1D
:10167000FF2801D8984601E003F104084646FF28F8
:1016800002D84FEA820803E0A2F108084FEA88086E
:101690004746D6F800804FF00F0909FA07F928EA03
:1016A00009080CFA07F900E088E048EA0908C6F8DA
:1016B0000080D1F8048008F08058B8F1805F7DD1B7
:1016C00000BFDFF8C081D8F8188048F00108DFF8C3
:1016D000B491C9F81880C846D8F8188008F00108F5
:1016E000CDF8008000BF00BF4FEAB9384FEA920939
:1016F00058F829504FEA82784FEA18794FF00F08CE
:1017000008FA09F825EA0805DFF87C81434502D18B
:101710004FF0000816E0DFF87481434502D14FF026
:1017200001080FE0DFF86881434502D14FF002085D
:1017300008E0DFF86081434502D14FF0030801E083
:101740004FF004084FEA82794FEA197908FA09F84C
:1017500048EA0505DFF840814FEA920948F8295028
:10176000D1F8048008F48038B8F5803F0AD1DFF85A
:101770002C81D8F8008048EA0008DFF82091C9F8E9
:10178000008009E0DFF81481D8F8008028EA00081A
:10179000DFF80891C9F80080D1F8048008F4003817
:1017A000B8F5003F10D1DFF8F48008F10408D8F84C
:1017B000008048EA0008DFF8E49000E05AE009F110
:1017C0000409C9F800800DE0DFF8D08008F10408B2
:1017D000D8F8008028EA0008DFF8C09009F1040971
:1017E000C9F80080D1F8048008F48018B8F5801F8B
:1017F0000ED1DFF8A88008F10808D8F8008048EA80
:101800000008DFF8989009F10809C9F800800DE098
:10181000DFF8888008F10808D8F8008028EA000876
:10182000DFF8789009F10809C9F80080D1F8048040
:1018300008F40018B8F5001F0ED1DFF8608008F139
:101840000C08D8F8008048EA0008DFF8509009F149
:101850000C09C9F800800DE0DFF8408008F10C08A1
:10186000D8F8008028EA0008DFF8309009F10C0968
:10187000C9F80080521C102AFFF48EAEBDE8F8872C
:10188000000011100010024000080140000C01404F
:101890000010014000140140080001400004014014
:1018A000C2684A40C2607047014800687047000043
:1018B0007802002002480068401C01490860704717
:1018C0007802002010B50848006840F01000064972
:1018D0000860032000F090F8002000F007F800F006
:1018E00017F8002010BD00000020024070B504462B
:1018F00001F08EFA4FF47A71B0FBF1F5284602F050
:1019000043FB00222146501E00F037F8002070BD36
:1019100008B500BF0A48806940F0010008498861A5
:101920000846806900F00100009000BF00BF03205E
:1019300000F062F800221146501E00F01EF808BDAB
:101940000010024000BF00F01F0201219140034A35
:10195000430942F8231000BF7047000080E100E017
:1019600000BF00F01F02012191404209920002F1E4
:10197000E022C2F8001100BF70472DE9F05F8046F9
:101980000D461646002702F0CBFE074639462A468A
:10199000334601F00700C0F1070ABAF1040F02D97B
:1019A0004FF0040A01E0C0F1070AD14600F1040A31
:1019B000BAF1070F02D24FF0000A01E0A0F1030ACA
:1019C000D4464FF0010A0AFA09FAAAF1010A0AEA12
:1019D000020A0AFA0CFA4FF0010B0BFA0CFBABF1FE
:1019E000010B0BEA030B4AEA0B042146404602F0C6
:1019F0009FFEBDE8F09F000000BF00F00702064B0D
:101A000019684FF6FF031940044B0B4343EA0221C8
:101A1000014B196000BF70470CED00E00000FA05B3
:101A2000704702461068416200207047F0B50346D7
:101A30001446002500221868426A21B942EA04408F
:101A40001E68B06219E01868806A02EB1042002537
:101A500008E0186800F5827050F8250002EB10428B
:101A6000681CC5B2481EA842F3DC42EA0447186865
:101A700000F582704E1E40F826700020F0BD10B5B3
:101A80000446D4F8A40304F0EDF910BD70B5044683
:101A90000D46C5EBC50304F1280101EB8301CA68BB
:101AA0002946D4F8A40304F039F970BD70B5044692
:101AB0000D46C5EBC50304F5E67101EB8301CA6869
:101AC0002946D4F8A40304F08AF970BD10B5044681
:101AD000D4F8A40304F0C9F910BD70B504460D464E
:101AE000002605F08000802808D105F07F00C0EBBB
:101AF000C00104F1280000EB810607E005F07F003B
:101B0000C0EBC00104F5E67000EB810605F07F0034
:101B1000307005F08000C009707000BF94F8700349
:101B2000012801D1022070BD012084F8700300BF9C
:101B30003146206804F078FD00BF002084F870036F
:101B400000BF00BFEFE770B504460D46002605F064
:101B50008000802808D105F07F00C0EBC00104F1AF
:101B6000280000EB810605E0C5EBC50104F5E67031
:101B700000EB81060020B07005F07F003070C5F3E7
:101B8000C010707000BF94F87003012801D10220CA
:101B900070BD012084F8700300BF3146206804F056
:101BA0004BFF00BF002084F8700300BF00BFEFE7C9
:101BB000024601F07F00C0EBC00302F5E67000EBC7
:101BC0008300008B80B270472DE9F04704460D4634
:101BD000174698464FF00009002605F0800080283F
:101BE00008D105F07F00C0EBC00104F1280000EB34
:101BF000810607E005F07F00C0EBC00104F5E67048
:101C000000EB810605F07F00307005F08000C00910
:101C10007070B76086F8038000BF94F870030128E5
:101C200002D10220BDE8F087012084F8700300BFD4
:101C30003146206804F036FC00BF002084F87003B1
:101C400000BF4846EEE72DE9F04104460E46174630
:101C50009846002506F07F00C0EBC00104F5E67051
:101C600000EB8105EF60C5F814800020A861687062
:101C700006F07F00287000BF94F87003012802D19D
:101C80000220BDE8F081012084F8700300BF06F057
:101C90007F0020B92946206804F0F4FD03E02946BE
:101CA000206804F053FF00BF002084F8700300BFD9
:101CB00000BFE6E770B504460D46002605F080003B
:101CC000802808D105F07F00C0EBC00104F1280096
:101CD00000EB810605E0C5EBC50104F5E67000EBFD
:101CE00081060120B07005F07F003070C5F3C01090
:101CF000707000BF94F87003012801D1022070BDFC
:101D0000012084F8700300BF3146206804F0D8FE3B
:101D100005F07F0020B904F55D71206804F074FEC1
:101D200000BF002084F8700300BF00BFE7E72DE983
:101D3000F04104460E4617469846002506F07F00FF
:101D4000C0EBC00104F1280000EB8105EF60C5F88D
:101D500014800020A8610120687006F07F002870C0
:101D600000BF94F87003012802D10220BDE8F08181
:101D7000012084F8700300BF06F07F0020B92946D7
:101D8000206804F07FFD03E02946206804F0DEFEB1
:101D900000BF002084F8700300BF00BFE6E72DE914
:101DA000F84F044625684FF0000AD346D046002677
:101DB0000020009000278146206805F04FF8002899
:101DC0007CD1206805F088F808B9BDE8F88F206854
:101DD00005F082F800F00200022801D12168486174
:101DE000206805F079F800F40020B0F5002F37D115
:101DF0000026206805F041F883462EE00BF0010034
:101E000040B3F1B2206805F05BF8804608F00100AD
:101E100048B1012105F5306000EB46108160F1B258
:101E20002046FFF743FE08F00800082808D12046A6
:101E300000F0E2FA082105F5306000EB4610816001
:101E400008F01000102805D1102105F5306000EBD6
:101E500046108160761C4FEA5B0BBBF1000FCDD1C1
:101E6000206805F039F800F48020B0F5802F5ED1AD
:101E7000206804F0F8FF8346002655E00BF00100CF
:101E800000284ED0F1B2206805F001F8804608F035
:101E90000100B0B10120B040009040F6340040593C
:101EA0000099884340F634014851012105F510603E
:101EB00000EB46108160F1B2204600E072E1FFF7CE
:101EC000E5FD08F00800082805D1082105F5106097
:101ED00000EB4610816008F01000102805D1102199
:101EE00005F5106000EB4610816008F040004028C6
:101EF00005D1402105F5106000EB4610816008F027
:101F00000200022805D1022105F5106000EB461001
:101F1000816008F08000802803D13146204602F01D
:101F20006DFC761C4FEA5B0BBBF1000FA6D120685D
:101F300004F0D2FF00F00040B0F1004F0ED140F6A7
:101F40000400405920F0010140F6040041512046B0
:101F500000F029FA4FF0004021684861206804F041
:101F6000BBFF00F40060B0F5006F0CD140F6080034
:101F7000405900F0010010B1204600F065FA4FF41E
:101F8000006021684861206804F0A6FF00F48050DA
:101F9000B0F5805F48D140F60400405920F00101BF
:101FA00040F6040041510021206804F03FFF4FF04B
:101FB000000A0CE0FF2105F5106000EB4A1081607B
:101FC00005F5306000EB4A1081600AF1010A606893
:101FD0005045EFD84FF0FF3140F618004151001D39
:101FE000405940F0011140F61C00415140F61400E8
:101FF000405940F00B0140F614004151001F405978
:1020000040F00B014FF401604151D5F8000820F475
:10201000FE60C5F8000804F55D71206804F0F4FC6A
:102020004FF4805021684861206804F055FF00F4A7
:102030000050B0F5005F19D1206804F09FFA2068C5
:10204000C06820F470502168C8600321E16040211D
:1020500021612068C06840F4A0502168C860204613
:1020600000F088F94FF4005021684861206804F0BE
:1020700033FF00F01000102843D12068806920F061
:102080001000216888612F6A07F00F00C0EBC001C3
:1020900004F5E67000EB8109C7F34340022819D12B
:1020A00047F6F070384030B3C7F30A122846D9F823
:1020B0000C1004F017FFC7F30A11D9F80C000844FC
:1020C000C9F80C00C7F30A11D9F818000844C9F878
:1020D000180010E0C7F3434006280CD1082204F58D
:1020E0005D71284604F0FEFEC7F30A11D9F8180006
:1020F0000844C9F818002068806940F01000216881
:102100008861206804F0E8FE00F00800082805D186
:10211000204600F04FF9082021684861206804F04B
:10212000DBFE00F48010B0F5801F07D1F1B220462D
:1021300000F03AF84FF4801021684861206804F0FC
:10214000CBFE00F40010B0F5001F07D1F1B220461D
:1021500000F033F84FF4001021684861206804F063
:10216000BBFE00F08040B0F1804F06D12046FFF763
:1021700086FC4FF0804021684861206804F0ACFE86
:1021800000F0040004280DD12068476807F004001F
:10219000042802D12046FFF799FC206840683843A4
:1021A0002168486000BF10E670B504460D46294618
:1021B000D4F8A40303F0B8FE70BD70B504460D4614
:1021C0002946D4F8A40303F0B2FE70BD30B585B043
:1021D0000446002514B9012005B030BD94F8710300
:1021E00028B9002084F87003204600F095F80320F9
:1021F00084F87103206804F03DFB142204F11001FF
:102200006846FEF713F894E80F0004F0D9F90021AE
:10221000206804F07BFE002530E00121C5EBC502FB
:1022200004F1280000EB82004170C5EBC50204F107
:10223000280000F82250C5EBC50200EB8200C580E3
:102240000021C5EBC50204F1280000EB8200C1703B
:10225000C5EBC50204F1280000EB82008160C5EBEC
:10226000C50204F1280000EB8200C160C5EBC50285
:1022700004F1280000EB820041616D1C0F2DCCD3CE
:10228000002531E00021C5EBC50204F5E67000EB46
:1022900082004170C5EBC50204F5E67000F82250DB
:1022A000C5EBC50204F1280000EB8200C580C5EB38
:1022B000C50204F5E67000EB8200C170C5EBC502F3
:1022C00004F5E67000EB82008160C5EBC50204F501
:1022D000E67000EB8200C160C5EBC50204F5E67054
:1022E00000EB820041616D1C0F2DCBD3142204F151
:1022F00010016846FDF79AFF94E80F0004F006FA13
:10230000002084F82400012084F87103206804F080
:10231000EEF9002060E7000010B586B004462068A2
:10232000B0F1A04F1FD14FF4007002900020039035
:10233000049002A90D48FFF725F900BF0C48406939
:1023400040F480500A4948610846406900F48050D2
:10235000019000BF00BF002205214320FFF70DFBC5
:102360004320FFF7FDFA06B010BD00000008014051
:102370000010024070B504460125E06810B1022843
:1023800004D101E0002503E0012501E0012500BFA3
:1023900000BF2946D4F8A40303F026FED4F8A40312
:1023A00003F0E8FD70BD10B50446D4F8A40303F0B3
:1023B00003FE10BD10B50446D4F8A40303F003FED9
:1023C00010BD70B504460D4600BF94F87003012897
:1023D00001D1022070BD012084F8700300BF84F891
:1023E00024502946206804F0A9FD00BF002084F88D
:1023F000700300BF00BFEDE710B5044604F55D7142
:10240000D4F8A40303F0FEFD10BD10B5044600BFD0
:1024100094F87003012801D1022010BD012084F836
:10242000700300BF01212046FFF7FAFA206804F08C
:102430004FF9206804F0DCFC00BF002084F8700332
:1024400000BF00BFE9E7000010B50446D4F8A403BC
:1024500003F021FE2068D0F8000E40F00100216852
:10246000C1F8000EA06928B10348006840F00600DA
:102470000149086010BD000010ED00E001200102DC
:1024800091FAA1F1B1FA81F1014A42F821007047B5
:1024900000000E422DE9F04F89B080469BA207CA8A
:1024A00006AB07C39CA30FCB02AC0FC400240020D3
:1024B0000190814600250026834682460027B8F118
:1024C000040F77D006DCB8F1010F74D0B8F1020F19
:1024D00072D101E1B8F1080F6FD0B8F1100FF7D148
:1024E00091484468006800F0807000286BD004F4C4
:1024F00070104FF4701191FAA1F1B1FA81F1C84056
:1025000006A90E5C04F4803098B38748C06A00F0D6
:102510000F000F2191FAA1F1B1FA81F1C84002A98F
:1025200011F800908048C06A00F4803010B37E48F3
:10253000C06A00F0F000F02191FAA1F1B1FA81F146
:10254000C840471C7848C06A00F470604FF470615E
:1025500091FAA1F1B1FA81F1C84000F1020B734880
:10256000B0FBF7F000FB0BF0B0FBF9F000FB06F559
:1025700005E013E06D48B0FBF9F000FB06F54FF401
:1025800050104FF4701191FAA1F1B1FA81F1C840E5
:1025900006A9085CB04204D16D0802E0644806FB5D
:1025A00000F56148406800F48000B0F5800F05D167
:1025B000019508E008E063E0A2E033E06800032151
:1025C000B0FBF1F001909CE05748C06A00F4003085
:1025D00018B900F04FFC019023E05348006800F068
:1025E0008050F0B15048C06A00F0F000F02191FA3C
:1025F000A1F1B1FA81F1C840471C4B48C06A00F410
:1026000070404FF4704191FAA1F1B1FA81F1C840E4
:1026100000F1020A4548B0FBF7F000FB0AF0400069
:1026200001906EE04048C06A00F4802018B900F0C4
:1026300021FC019023E03C48006800F08050F0B19C
:102640003948C06A00F0F000F02191FAA1F1B1FA26
:1026500081F1C840471C3448C06A00F470404FF410
:10266000704191FAA1F1B1FA81F1C84000F1020A7A
:102670002E48B0FBF7F000FB0AF04000019040E06C
:102680002948046A04F44070B0F5807F06D104F054
:10269000020018B14FF4004001901CE004F44070B7
:1026A000B0F5007F08D12048406A00F0020018B160
:1026B00049F6404001900EE004F44070B0F5407FD0
:1026C00007D11948006800F4003010B11948019092
:1026D00001E00020019014E000F0B6FB0146124832
:1026E000406800F440404FF4804292FAA2F2B2FAFD
:1026F00082F2D040401C4000B1FBF0F0019000E0BD
:1027000000BF00BF019809B0BDE8F08F00000405CC
:10271000060708090000000D01020304050607086A
:10272000090A0B0C0D0E0F10001002400024F400DB
:1027300000093D0048E80100F8B5044600250026E0
:102740000027207800F00100002876D000BFA048C4
:10275000C06940F080509E49C8610846C06900F0D9
:102760008050009000BF00BF9A48006840F480701D
:1027700098490860FFF798F8054606E0FFF794F8D7
:10278000401B642801D90320F8BD9248006800F47A
:1027900080700028F2D08E48006A00F44076A0884D
:1027A00000F44070B0421BD08948006A20F44076A3
:1027B0000120010491FAA1F1B1FA81F1864A02EBFC
:1027C0008101C1F8000400204FF4803191FAA1F199
:1027D000B1FA81F102EB8101C1F800047C48066284
:1027E0006068B0F5807F39D1FFF75EF8054608E0F4
:1027F000FFF75AF8401B41F28831884201D9032083
:10280000C2E74020022191FAA1F1B1FA81F1084317
:102810000121B1EB601F02D16D48006810E040203B
:10282000022191FAA1F1B1FA81F108430221B1EB41
:10283000601F03D16648006A02E017E06448406AFE
:102840004021022292FAA2F2B2FA82F2114301F07E
:102850001F020121914008400028C9D05C48006A4D
:1028600020F440706168084359490862207800F0FC
:102870000200022807D15648406820F44040A16871
:10288000084353494860207800F00400042807D129
:102890004F48C06A20F40030E16808434C49C862E0
:1028A000207800F00800082807D14948C06A20F4C1
:1028B0008020216908434649C8624548C06A00F43F
:1028C000003020B94248C06A00F4802000B10127DE
:1028D000012F6DD13E48006800F0805000285ED185
:1028E0003B48006800F0806040B13948C06A00F0A1
:1028F000F001A069814201D0012045E73448C06A57
:1029000020F0F000A16908433149C8620846C06A56
:1029100020F47040616908432D49C8620120010715
:1029200091FAA1F1B1FA81F12B4A42F82100FEF7A8
:10293000BBFF054606E0FEF7B7FF401B642801D940
:10294000032021E72020010691FAA1F1B1FA81F1DB
:1029500008430121B1EB601F02D11D4800680FE060
:102960002020010691FAA1F1B1FA81F10843022178
:10297000B1EB601F02D11648006A01E01448406ABA
:1029800020210A0692FAA2F2B2FA82F2114301F071
:102990001F020121914008400028CCD008E00C48DB
:1029A000C06A00F470406169884201D00120EBE602
:1029B000207800F01000102807D10548406820F466
:1029C0008000E1690843024948600020DCE600001D
:1029D00000100240007000400000424270B5044602
:1029E0000D460026F748006800F00700A84270D2A4
:1029F000F448006820F007002843F24908600846C0
:102A0000006800F00700A84201D0012070BD2078C6
:102A100000F00200022807D1EB48406820F0F000E7
:102A2000A1680843E8494860207800F001000028C8
:102A30006FD0606801282DD12020010391FAA1F107
:102A4000B1FA81F108430121B1EB601F02D1DE48E8
:102A500000680FE02020010391FAA1F1B1FA81F1A1
:102A600008430221B1EB601F02D1D748006A01E0A0
:102A7000D548406A20210A0392FAA2F2B2FA82F201
:102A8000114301F01F02012191400840002861D14B
:102A90000120BBE7606802282DD12020010591FAB2
:102AA000A1F1B1FA81F108430121B1EB601F02D11C
:102AB000C548006810E02020010591FAA1F1B1FAA3
:102AC00081F108430221B1EB601F03D1BE48006AC7
:102AD00002E083E0BC48406A20210A0592FAA2F293
:102AE000B2FA82F2114301F01F0201219140084025
:102AF00078BB01208AE72020022191FAA1F1B1FAE6
:102B000081F108430121B1EB601F03D1AE48006899
:102B100010E05BE12020022191FAA1F1B1FA81F1EC
:102B200008430221B1EB601F02D1A748006A01E00F
:102B3000A548406A2021022292FAA2F2B2FA82F259
:102B4000114301F01F0201219140084008B9012002
:102B50005CE7FFE79C48406820F003006168084399
:102B600099494860FEF7A0FE06466068012810D12A
:102B700008E0FEF799FE801B41F28831884201D9B6
:102B8000032043E79048406800F00C000428F0D18F
:102B90001CE16068022810D108E0FEF785FE801B6A
:102BA00041F28831884201D903202FE786484068E6
:102BB00000F00C000828F0D108E108E0FEF774FEF0
:102BC000801B41F28831884201D903201EE77E48EC
:102BD000406800F00C000028F0D1F7E0207800F009
:102BE0000200022807D17848406820F0F000A16870
:102BF000084375494860207800F0010000286ED035
:102C0000606801282CD12020010391FAA1F1B1FACA
:102C100081F108430121B1EB601F02D16A480068CD
:102C20000FE02020010391FAA1F1B1FA81F10843EC
:102C30000221B1EB601F02D16348006A01E06248E3
:102C4000406A20210A0392FAA2F2B2FA82F21143F8
:102C500001F01F0201219140084088BB0120D5E608
:102C6000606802282DD12020010591FAA1F1B1FA66
:102C700081F108430121B1EB601F02D15248006885
:102C80000FE02020010591FAA1F1B1FA81F108438A
:102C90000221B1EB601F02D14B48006A01E04A48B3
:102CA000406A20210A0592FAA2F2B2FA82F2114396
:102CB00001F01F0201219140084008B90120A5E65A
:102CC0002DE02020022191FAA1F1B1FA81F108430F
:102CD0000121B1EB601F03D13B48006810E061E0C7
:102CE0002020022191FAA1F1B1FA81F108430221D9
:102CF000B1EB601F02D13448006A01E03248406AFB
:102D00002021022292FAA2F2B2FA82F2114301F0D9
:102D10001F0201219140084008B9012076E62A48A7
:102D2000406820F003006168084327494860FEF7C7
:102D3000BBFD06466068012810D108E0FEF7B4FD2F
:102D4000801B41F28831884201D903205EE61E488B
:102D5000406800F00C000428F0D123E060680228ED
:102D600010D108E0FEF7A0FD801B41F288318842B7
:102D700001D903204AE61448406800F00C000828F6
:102D8000F0D10FE008E0FEF78FFD801B41F28831A3
:102D9000884201D9032039E60B48406800F00C0056
:102DA0000028F0D10748006820F0070028430549B3
:102DB00008600846006800F00700A84206D001201D
:102DC00024E600000020024000100240207800F0BD
:102DD0000400042807D10D48406820F4E060E16851
:102DE00008430A494860207800F00800082808D104
:102DF0000648406820F46050216940EAC100034958
:102E000048600020FEF772FD0020FFE50010024040
:102E100010B500F02FF80949496801F0F001F022DF
:102E200092FAA2F2B2FA82F2D140054A515CC8404D
:102E3000044908600846006810BD00000010024008
:102E4000008A00087C02002010B5FFF7E1FF074967
:102E5000496801F460514FF4605292FAA2F2B2FA5A
:102E600082F2D140024A515CC84010BD00100240BD
:102E7000008A00082DE9F04387B00FF22418D8E942
:102E8000007CD8F80880CDE905C804970FF21C1C17
:102E9000DCE90089DCE9027CCDE9027CCDE900892E
:102EA0000022002400230021002000250026434F9B
:102EB0007A6802F00C07002F6BD0042F02D0082F85
:102EC00066D101E03E4866E002F470174FF4701CD2
:102ED0009CFAACFCBCFA8CFC27FA0CF70DF1100C38
:102EE0001CF8071002F48037AFB3344FFF6A07F0C5
:102EF0000F074FF00F0C9CFAACFCBCFA8CFC27FAC5
:102F00000CF71DF807402D4FFF6A07F480371FB3F9
:102F10002A4FFF6A07F0F0074FF0F00C9CFAACFC68
:102F2000BCFA8CFC27FA0CF77D1C244FFF6A07F4CF
:102F300070674FF4706C9CFAACFCBCFA8CFC27FAFE
:102F40000CF7BE1C1E4FB7FBF5F77743B7FBF4F742
:102F500007FB01F305E016E0194FB7FBF4F707FB99
:102F600001F34FF450174FF4701C9CFAACFCBCFA00
:102F70008CFC27FA0CF70DF1100C1CF807708F422F
:102F800004D15B0802E00F4F01FB07F3184602E093
:102F900000BF0D4800BF00BF07B0BDE8F0830000D0
:102FA00000000405060708090000000D01020304E3
:102FB00005060708090A0B0C0D0E0F100010024041
:102FC0000024F40000093D0000127A0038B50446E0
:102FD0000025207800F0010000286ED0F7484068F6
:102FE00000F00C0004280CD0F448406800F00C00FD
:102FF00008283AD1F148406800F48030B0F5803FAD
:1030000033D12020010391FAA1F1B1FA81F10843F3
:103010000121B1EB601F02D1E84800680FE02020D9
:10302000010391FAA1F1B1FA81F108430221B1EB58
:10303000601F02D1E148006A01E0E048406A2021B7
:103040000A0392FAA2F2B2FA82F2114301F01F02CD
:103050000121914008400028BFD0A0680128BCD0C1
:10306000A0680528B9D0012038BD00BFD34800684A
:1030700020F48030D14908600846006820F48020A0
:10308000086000BFFEF710FC054608E0FEF70CFCE8
:10309000401B41F28831884201D90320E4E7202017
:1030A000010391FAA1F1B1FA81F108430121B1EBD9
:1030B000601F03D1C148006810E0B6E02020010382
:1030C00091FAA1F1B1FA81F108430221B1EB601F3D
:1030D00002D1BA48006A01E0B848406A20210A03D8
:1030E00092FAA2F2B2FA82F2114301F01F02012118
:1030F000914008400028C9D100BFB048006820F4C2
:103100008030AE490860A06801280AD108460068EE
:1031100020F4802008600846006840F48030086091
:103120000CE0A068052803D1207AA449887005E046
:10313000A248006820F48020A049086000BFA06871
:10314000C8B3FEF7B1FB054608E0FEF7ADFB401B38
:1031500041F28831884201D9032085E7202001030C
:1031600091FAA1F1B1FA81F108430121B1EB601F9D
:1031700002D1924800680FE02020010391FAA1F1EA
:10318000B1FA81F108430221B1EB601F02D18B48F3
:10319000006A01E08948406A20210A0392FAA2F2FB
:1031A000B2FA82F2114301F01F020121914008405E
:1031B0000028CAD039E0FFE7FEF776FB054608E0B5
:1031C000FEF772FB401B41F28831884201D903208F
:1031D0004AE72020010391FAA1F1B1FA81F10843F5
:1031E0000121B1EB601F02D1744800680FE020207C
:1031F000010391FAA1F1B1FA81F108430221B1EB87
:10320000601F02D16D48006A01E06C48406A2021CD
:103210000A0392FAA2F2B2FA82F2114301F01F02FB
:103220000121914008400028CAD1207800F0020016
:1032300002284ED16148406800F00C0050B15F4850
:10324000406800F00C00082844D15C48406800F455
:10325000803078BB2020022191FAA1F1B1FA81F1EE
:1032600008430121B1EB601F02D1544800680FE010
:103270002020022191FAA1F1B1FA81F10843022143
:10328000B1EB601F02D14D48006A01E04B48406A33
:103290002021022292FAA2F2B2FA82F2114301F044
:1032A0001F0201219140084028B16069012802D025
:1032B0000120D9E60EE04148006820F0F800F8222D
:1032C00092FAA2F2B2FA82F2A169914008433B4914
:1032D000086095E0606970B3012090FAA0F1B1FA3E
:1032E00081F1374A42F82100FEF7DEFA054606E092
:1032F000FEF7DAFA401B642801D90320B4E6202047
:10330000022191FAA1F1B1FA81F108430121B1EB57
:10331000601F02D12948006810E02020022191FAA4
:10332000A1F1B1FA81F108430221B1EB601F03D191
:103330002248006A02E01EE02048406A2021022262
:1033400092FAA2F2B2FA82F2114301F01F020121B5
:10335000914008400028CBD01848006820F0F800C1
:10336000F82292FAA2F2B2FA82F2A16991400843DD
:103370001249086044E00020012191FAA1F1B1FA5C
:1033800081F10F4A42F82100FEF78EFA054606E069
:10339000FEF78AFA401B642801D9032064E6202046
:1033A000022191FAA1F1B1FA81F108430121B1EBB7
:1033B000601F07D10148006814E0000000100240BF
:1033C000000042422020022191FAA1F1B1FA81F1DC
:1033D00008430221B1EB601F02D1F948006A01E005
:1033E000F748406A2021022292FAA2F2B2FA82F24F
:1033F000114301F01F020121914008400028C7D16C
:10340000207800F00800082846D1E06980B3012048
:1034100090FAA0F1B1FA81F1EA4A02EB8101C1F818
:103420008004FEF741FA054606E0FEF73DFA401B30
:10343000642801D9032017E66020022191FAA1F146
:10344000B1FA81F108430121B1EB601F02D1DC48E0
:10345000006810E06020022191FAA1F1B1FA81F137
:1034600008430221B1EB601F03D1D548006A02E096
:1034700013E0D348406A6021022292FAA2F2B2FA23
:1034800082F2114301F01F020121914008400028FF
:10349000CBD00120FDF7BDFF41E00021012090FAD3
:1034A000A0F0B0FA80F0C74A02EB8000C0F88014A8
:1034B000FEF7FAF9054606E0FEF7F6F9401B642828
:1034C00001D90320D0E56020022191FAA1F1B1FADF
:1034D00081F108430121B1EB601F02D1B8480068B7
:1034E0000FE06020022191FAA1F1B1FA81F10843C5
:1034F0000221B1EB601F02D1B148006A01E0B0487F
:10350000406A6021022292FAA2F2B2FA82F21143D8
:1035100001F01F020121914008400028CCD1207801
:1035200000F0040004287CD100BFA548C06940F029
:103530008050A349C8610846C06900F080500090DF
:1035400000BF00BFA048006840F480709E4908603A
:10355000FEF7AAF9054606E0FEF7A6F9401B642827
:1035600001D9032080E59848006800F480700028A5
:10357000F2D000BF0021012090FAA0F0B0FA80F054
:10358000904A02EB8000C0F800140020042191FA58
:10359000A1F1B1FA81F102EB8101C1F8000400BF91
:1035A000FEF782F9054608E0FEF77EF9401B41F27E
:1035B0008831884201D9032056E54020022191FA42
:1035C000A1F1B1FA81F108430121B1EB601F02D1F1
:1035D0007B4800680FE04020022191FAA1F1B1FA86
:1035E00081F108430221B1EB601F02D17448006AE7
:1035F00001E07348406A4021022292FAA2F2B2FA34
:1036000082F2114301F01F0201219140084000287D
:10361000CAD100BF2069B0B90020012191FAA1F1FF
:1036200000E0B4E0B1FA81F1664A02EB8101C1F831
:103630000004042191FAA1F1B1FA81F102EB8101B8
:10364000C1F800042CE02069012814D100200421D5
:1036500091FAA1F1B1FA81F15A4A02EB8101C1F864
:103660000004012090FAA0F1B1FA81F102EB81018E
:10367000C1F8000414E00020012191FAA1F1B1FA8F
:1036800081F1504A02EB8101C1F8000401200421BC
:1036900091FAA1F1B1FA81F102EB8101C1F80004C4
:1036A00000BF2069012839D1FEF7FEF8054608E081
:1036B000FEF7FAF8401B41F28831884201D9032015
:1036C000D2E44020022191FAA1F1B1FA81F108433C
:1036D0000121B1EB601F02D1394800680FE04020A2
:1036E000022191FAA1F1B1FA81F108430221B1EB73
:1036F000601F02D13248006A01E03148406A40212F
:10370000022292FAA2F2B2FA82F2114301F01F02EF
:103710000121914008400028CAD038E0FEF7C4F8E3
:10372000054608E0FEF7C0F8401B41F288318842A8
:1037300001D9032098E44020022191FAA1F1B1FAC5
:1037400081F108430121B1EB601F02D11C480068E0
:103750000FE04020022191FAA1F1B1FA81F1084372
:103760000221B1EB601F02D11548006A01E0144844
:10377000406A4021022292FAA2F2B2FA82F2114386
:1037800001F01F020121914008400028CAD1E06ADF
:1037900000287DD00A48406800F48030B0F5803FB2
:1037A00014D10748406800F00C0008280ED10448E6
:1037B000C06A00F48030B0F5803F07D1012053E4A7
:1037C000001002400000424200700040E06A0228FF
:1037D00074D1EE48006800F0805040B1EB48C06AF8
:1037E00000F0F001606B814201D001203CE4002038
:1037F0004FF0806191FAA1F1B1FA81F1E44A42F807
:103800002100FEF751F8054606E0FEF74DF8401B93
:10381000642801D9032027E42020810591FAA1F131
:10382000B1FA81F108430121B1EB601F02D1D74801
:1038300000680FE02020810591FAA1F1B1FA81F131
:1038400008430221B1EB601F02D1D048006A01E0B9
:10385000CE48406A20218A0592FAA2F2B2FA82F298
:10386000114301F01F020121914008400028CCD1F2
:10387000C648C06A20F0F000616B0843C349C862C3
:103880000846C06A20F47060216B0843BF4900E01D
:1038900089E0C8620121880690FAA0F0B0FA80F0B1
:1038A000BB4A42F82010FDF7FFFF054607E0FDF791
:1038B000FBFF401B642802D903204EE42CE02020AB
:1038C000810591FAA1F1B1FA81F108430121B1EB2F
:1038D000601F02D1AD4800680FE02020810591FAF9
:1038E000A1F1B1FA81F108430221B1EB601F02D1CD
:1038F000A648006A01E0A548406A20218A0592FA9C
:10390000A2F2B2FA82F2114301F01F0201219140AA
:1039100008400028CBD046E09C48C06A20F48030A4
:103920009A49C86200214FF0806090FAA0F0B0FA86
:1039300080F0974A42F82010FDF7B6FF054606E0F2
:10394000FDF7B2FF401B642801D9032005E42020C5
:10395000810591FAA1F1B1FA81F108430121B1EB9E
:10396000601F02D1894800680FE02020810591FA8C
:10397000A1F1B1FA81F108430221B1EB601F02D13C
:103980008248006A01E08148406A20218A0592FA53
:10399000A2F2B2FA82F2114301F01F02012191401A
:1039A00008400028CCD1206A002872D077484068AF
:1039B00000F00C0008286DD0206A02286BD100208E
:1039C0004FF0807191FAA1F1B1FA81F1704A42F899
:1039D0002100FDF769FF054606E0FDF765FF401B86
:1039E000642801D9032064E42020010591FAA1F1A3
:1039F000B1FA81F108430121B1EB601F02D16348A4
:103A000000680FE02020010591FAA1F1B1FA81F1DF
:103A100008430221B1EB601F02D15C48006A01E05B
:103A20005A48406A20210A0592FAA2F2B2FA82F2BA
:103A3000114301F01F020121914008400028CCD120
:103A4000606AB0F5803F0DD15048C06A6168084394
:103A50004E49C8620846C06A20F00F00E16808437A
:103A60004A49C862D4E9090108434849496821F430
:103A700074110843454948600120010691FAA1F1FB
:103A8000B1FA81F1424A42F82100FDF70DFF0546E7
:103A900009E079E076E033E0FDF706FF401B64289B
:103AA00001D9032005E42020010591FAA1F1B1FA22
:103AB00081F108430121B1EB601F02D13348006856
:103AC0000FE02020010591FAA1F1B1FA81F108433C
:103AD0000221B1EB601F02D12C48006A01E02B48A3
:103AE000406A20210A0592FAA2F2B2FA82F2114348
:103AF00001F01F020121914008400028CCD043E092
:103B000000204FF0807191FAA1F1B1FA81F1204AC1
:103B100042F82100FDF7C8FE054606E0FDF7C4FEA9
:103B2000401B642801D9032038E42020010591FAC4
:103B3000A1F1B1FA81F108430121B1EB601F02D17B
:103B4000124800680FE02020010591FAA1F1B1FAB6
:103B500081F108430221B1EB601F02D10B48006ADA
:103B600001E00A48406A20210A0592FAA2F2B2FA5C
:103B700082F2114301F01F02012191400840002808
:103B8000CCD101E0012009E4002007E4001002404C
:103B900000004242014609B90120704700BF087C7D
:103BA000012801D10220F8E70120087400BF02209B
:103BB00048740868006820F001000A68106001205D
:103BC000487400BF0020087400BF00BFE5E77047DD
:103BD000704710B504462068006800F00100E0B1AD
:103BE0002068406800F00100B8B120684068C0F368
:103BF000800048B12046FFF7EBFF6FF0040021681A
:103C000048600420607404E02046FFF7E0FF0120D4
:103C100060746FF001002168486010BD70B5044603
:103C200000250CB9012070BD607C20B900202074F3
:103C3000204600F05BF802206074204600F070F926
:103C400018B1042060740120EDE7204600F037FE33
:103C500018B1042060740120E5E72068406820F076
:103C6000070021684860A06828B11F48006820F05C
:103C700001001D4908601C48001F006820F46070A6
:103C8000A16808431849091F08606068401C08B112
:103C9000656809E00120FEF7FDFB05461DB904201B
:103CA00060740120BFE76D1E2068806820F00F005F
:103CB00040EA1540216888602068C06865F30F00FD
:103CC0002168C860204600F017FE18B10420607417
:103CD0000120A8E70021E17301216173A173012094
:103CE000607400209FE70000306C004038B5044647
:103CF00013492068884222D1FEF7C0FB00BF11485B
:103D0000C06940F000600F49C8610846C06900F012
:103D10000060009000BF00BF0120C10391FAA1F133
:103D2000B1FA81F1084A02EB8101C1F800040022D6
:103D300005210320FDF721FE0320FDF711FE38BD0C
:103D40000028004000100240000042422DE9F047E8
:103D500004460D46904600260027B14604B115B929
:103D60000120BDE8F08700BF207C012801D102209E
:103D7000F7E70120207400BF02206074B8F1000F43
:103D800006D1E978E17369786173A978A1730BE0D2
:103D9000E87800F089FDE073687800F085FD6073D5
:103DA000A87800F081FDA073A27B617BE07B00F02E
:103DB000F1FD2073207B2870204600F0D1FD0646DF
:103DC0004FF46160B6FBF0F9B9F1180F2FD9182044
:103DD000B9FBF0F000EB4000C000C0EB4011C1EBBC
:103DE0000020A6EB00163146204600F02CFE38B12C
:103DF0000420607400BF0020207400BF0120B0E7E1
:103E0000204600F0A1FD0746781C80B1B7420ED2D3
:103E10000B4807443946204600F0FEFD38B1042027
:103E2000607400BF0020207400BF012099E70120CA
:103E3000607400BF0020207400BF00BF91E7000045
:103E4000805101002DE9F04704460D4690460026BA
:103E5000002704B115B90120BDE8F08700BF207C20
:103E6000012801D10220F7E70120207400BF0220C1
:103E70006074B8F1000F0BD128784FF461614843AA
:103E80006978C1EB011100EB8100A978461812E0B6
:103E9000287800F009FD4FF4616100FB01F96878B2
:103EA00000F002FDC0EB001009EB8009A87800F0DB
:103EB000FBFC09EB00063146204600F0C4FD38B19A
:103EC0000420607400BF0020207400BF0120C3E7FD
:103ED0002068406820F0050021684860204600F016
:103EE00033FD0746781C80B1B7420ED20B48074419
:103EF0003946204600F090FD38B10420607400BFC0
:103F00000020207400BF0120A6E70120607400BFDC
:103F10000020207400BF00BF9EE700008051010018
:103F200070B5044600250CB9012070BD20684068BA
:103F300020F0080021684860FDF7B6FC054607E060
:103F4000FDF7B2FC401BB0F57A7F01D90320ECE706
:103F50002068406800F008000028F1D00020E4E765
:103F6000042808D14FF0E021096941F004014FF025
:103F7000E022116107E04FF0E021096921F004011E
:103F80004FF0E0221161704770B504462546681E67
:103F9000B0F1807F01D301200FE0681E4FF0E021D7
:103FA00048610F214FF0FF3000F0C2FB00204FF0BE
:103FB000E021886107200861002070BD70477047CC
:103FC000024600BF92F83800012801D10220704754
:103FD000012082F8380000BF022082F83900106802
:103FE000406820F0700013685860106840680B68E3
:103FF0001843136858601068806820F080001368C8
:104000009860106880684B681843136898600120B6
:1040100082F8390000BF002082F8380000BF00BFDE
:10402000D5E710B504460CB9012010BD94F839004D
:1040300028B9002084F83800204600F00DF802204E
:1040400084F83900211D206800F0D2FE012084F898
:1040500039000020E9E7000038B504461F49206810
:10406000884216D100BF1E48C06940F002001C49BA
:10407000C8610846C06900F00200009000BF00BFA0
:10408000002205211D20FDF778FC1D20FDF768FCAE
:1040900023E01449206888420DD100BF1048806990
:1040A00040F400600E4988610846806900F40060B1
:1040B000009000BF11E02068B0F1804F0DD100BF2B
:1040C0000748C06940F001000549C8610846C06959
:1040D00000F00100009000BF00BF38BD00040040A8
:1040E00000100240002C01400146022081F83900F6
:1040F0000868006840F001000A681060012081F83B
:10410000390000207047704710B5044620680069E8
:10411000C0F34000D8B12068C068C0F34000B0B11F
:104120006FF0020021680861012020762068806914
:1041300000F0030018B12046FFF7E5FF05E0204638
:1041400000F0E7F8204600F047F9002020762068CC
:104150000069C0F38000D8B12068C068C0F3800057
:10416000B0B16FF004002168086102202076206859
:10417000806900F4407018B12046FFF7C4FF05E0E5
:10418000204600F0C6F8204600F026F900202076F0
:1041900020680069C0F3C000D8B12068C068C0F3CF
:1041A000C000B0B16FF008002168086104202076DB
:1041B0002068C06900F0030018B12046FFF7A3FF94
:1041C00005E0204600F0A5F8204600F005F90020A3
:1041D000207620680069C0F30010D8B12068C0685C
:1041E000C0F30010B0B16FF0100021680861082022
:1041F00020762068C06900F4407018B12046FFF7AF
:1042000082FF05E0204600F084F8204600F0E4F844
:10421000002020762068006900F0010058B1206875
:10422000C06800F0010030B16FF001002168086142
:10423000204600F0D2F820680069C0F3C01058B1E1
:104240002068C068C0F3C01030B16FF080002168F2
:1042500008612046FFF7B2FE20680069C0F38010B5
:1042600058B12068C068C0F3801030B16FF04000D2
:1042700021680861204600F0B1F820680069C0F3A9
:10428000401058B12068C068C0F3401030B16FF0E2
:104290002000216808612046FFF791FE10BD70B52F
:1042A00004460E46154600BF94F83800012801D197
:1042B000022070BD012084F8380000BF022084F87D
:1042C000390035B1042D09D0082D0CD00C2D14D196
:1042D0000EE03146206800F0D7FD0FE0314620683F
:1042E00000F004FE0AE03146206800F037FE05E0E9
:1042F0003146206800F068FE00E000BF00BF0120EA
:1043000084F8390000BF002084F8380000BF00BFE7
:10431000CFE7704710B504460CB9012010BD94F8E2
:10432000390028B9002084F83800204600F00CF845
:10433000022084F83900211D206800F059FD012079
:1043400084F839000020E9E77047000030B50446E2
:104350000D4635B1042D0BD0082D10D00C2D1CD1DD
:1043600014E02068C06840F002002168C86015E0D1
:104370002068C06840F004002168C8600EE0206832
:10438000C06840F008002168C86007E02068C06885
:1043900040F010002168C86000E000BF00BF0122AB
:1043A0002946206800F062FD0A492068884201D150
:1043B000012000E0002028B12068406C40F400405B
:1043C000216848642068006840F0010021680860A6
:1043D000002030BD002C014070477047704700003E
:1043E00010B50C480C4908600420486000210A48B8
:1043F0008160C1604FF48031016149014161002158
:104400008161C161016241628162C162FCF720FC8D
:1044100010BD0000006400403805002010B50C48B5
:104420000C4908601020486000210A488160C16082
:104430004FF4802101614FF4A001416100218161AD
:10444000C161016241628162C162FCF701FC10BD81
:1044500000680040780500202DE9F04107460E462F
:1044600014469846069D012F02D0022F06D102E085
:104470003C48206003E03C48206000E000BF00BFF3
:104480002046FCF7F9FA062E4AD2DFE806F03E3263
:10449000261A0F03182060600021E1604FF480317C
:1044A000216189016161002028603AE01820606084
:1044B0000021E16021614FF4E00161610120286089
:1044C0002FE0182060600021E1604FF4803121610D
:1044D000890161610220286023E0182060600021CA
:1044E000E1604FF480312161002161610320286087
:1044F00017E0062060600021E1604FF48021216117
:1045000089006161042028600BE0042060600021C4
:10451000E16081032161C10461610520286000E040
:1045200000BF00BFB8F1000F0BD10021A160A16155
:10453000E16121626162A162E1622046FCF788FBD1
:104540000EE00021A160A161E16121626162A162CE
:10455000E1622046FCF77CFB00212046FCF7EDFDE4
:10456000BDE8F081006400400068004000B585B0FF
:1045700000BF2948806940F020002749886108462B
:10458000806900F02000009000BF00BF00BF084617
:10459000806940F0100088610846806900F01000D2
:1045A000009000BF00BF00BF0846806940F00800CF
:1045B00088610846806900F00800009000BF00BFD5
:1045C00000BF0846806940F00400886108468069A1
:1045D00000F00400009000BF00BF03200190012004
:1045E00002900220049001A90C48FCF7CBFF0820A0
:1045F00001900B4802900120039001A90748FCF7A5
:10460000C1FF002205210920FDF7B7F90920FDF7B8
:10461000A7F905B000BD00000010024000100140E5
:10462000000031101CB51748174908604FF0FF30E3
:10463000486000211448816001201349087301215A
:104640001148417381730021C173FFF7E7FA00201D
:104650008DF804008DF805008DF8060000240A4846
:104660000068446800BF04F008000028FBD0012265
:1046700001A90548FFF7E6FB012269460248FFF75A
:1046800065FB1CBD00280040B805002000B589B0BE
:104690001448154908602F204860002112488160A5
:1046A00040F2E731C160FFF7BCFC0F48FFF732FE74
:1046B00000200790089007A90B48FFF781FC002114
:1046C0000948FFF743FE0020009040F2E7300190D8
:1046D000002269460448FFF7E2FD0348FFF704FDA6
:1046E00009B000BD000400404406002010B50022BF
:1046F0000749084801F0E5FA0749064801F0F9FCC6
:104700000649044801F02AF8024801F0BBFD10BD3B
:1047100018010020900D00201000002064020020ED
:1047200002480068C0F30220704700000CED00E072
:1047300010B5002807DA0A07140E054A00F00F0327
:104740001B1FD45403E00A07130E024A135410BD72
:1047500018ED00E000E400E010B50248FDF71FFB93
:1047600010BD0000CC07002008B500BF00235A1E72
:1047700019461B48006803F0D9FC01282CD11948C0
:10478000007810BB18480078F8B11848007870B16C
:1047900026211748FBF7CCFF00236A461449154829
:1047A000006803F04DFE0020104908700DE026213E
:1047B0001148FBF7BDFF00236A460F490D4800680A
:1047C00003F03EFE0120094908704FF4967003F093
:1047D000CDFA0920FDF7C4F8012002F0BBFEC5E7C1
:1047E0005C020020AA010020AB010020AC010020E7
:1047F00025020020E4010020F00100202DE9F0470F
:1048000080460E46D8F8007000240025A146A24636
:10481000C6EBC60108F1280000EB8104D4E90501CC
:10482000451AA068A84200D2A568E81CC11700EB91
:1048300091714FEAA10918E0D4E90501451AA06871
:10484000A84200D2A568E81CC11700EB91714FEA9D
:10485000A109ABB2F2B23846E16802F089FBE06828
:104860002844E060A0692844A06107F5106000EBCF
:104870004610806980B2484506D9D4E905108842BF
:1048800002D260690028D7D1002D0ADC012000FA8D
:1048900006FA40F63400C05920EA0A0040F6340116
:1048A000C8510020BDE8F087014600BF080900EBB1
:1048B0008000420001F00F001044C0B2704770B594
:1048C00004460025FCF7F0FF054607E0FCF7ECFF87
:1048D000401BB0F57A7F01D9032070BD2068406885
:1048E00000F020000028F1D02068406840F010005F
:1048F000216848600020F0E770B504460025206874
:10490000406820F0100021684860FCF7CDFF0546A4
:1049100007E0FCF7C9FF401BB0F57A7F01D90320FF
:1049200070BD2068406800F020000028F1D0002011
:10493000F6E7000010B50348FFF74BF90148FFF711
:1049400029F910BDB805002001460022002308689F
:10495000006A82B20868406A83B243EA0240704744
:1049600030B5014600220023002400200D68AD6907
:10497000AAB20D68ED69ACB20D68AD69ABB29A42EE
:1049800005D00D68ED6963F31F45284601E044EA50
:10499000024030BDF0B504460B460021002504F569
:1049A000FA61032B1BDAC3EBC30000EB03100926EB
:1049B00090FBF6F01044001D4618481E06EB9006CA
:1049C0006427B0FBF7F0361A481EBF00B0FBF7F0C3
:1049D00030440726B0FBF6F706FB17051AE0C3EBD9
:1049E000C30000EB0310092690FBF6F01044001DF5
:1049F000084400EB91006426B1FBF6F6801B4FF4EF
:104A0000C876B1FBF6F63044801E0726B0FBF6F7F9
:104A100006FB1705E8B2F0BD70B504460D4600264A
:104A20002046FFF74CFF08B101260AE0280C216858
:104A30000862A8B2216848622046FFF75DFF00B116
:104A40000126304670BD70B504460D46002620464E
:104A5000FFF735FF08B101260AE0280C21688861BC
:104A6000A8B22168C8612046FFF746FF00B10126C1
:104A7000304670BD70B505460C461422002128460C
:104A8000FCF76CFA0649087008460078032805D040
:104A900008460078012801D00120207070BD000078
:104AA000B401002038B5002500246F4800780028A4
:104AB0006FD16E4800906E4802780078401C6C4BB5
:104AC00018706C48815C00236B4A0120FFF7C4FC1E
:104AD00000BF6A480068401C68490860624966482F
:104AE000FFF7C8FF654800680F281AD160480078B2
:104AF000062804D100205E490870601CC4B25B48DF
:104B000000905B4802780078401C594B1870594857
:104B1000815C0023584A0120FFF79EFC0020574982
:104B200008605148007808B9032CD2D100205349BD
:104B3000086000244C48007828B101250221504823
:104B4000FCF7AEFE25E0494800904A480179002371
:104B5000494A0120FFF780FC0420444908600221F3
:104B60004748FCF79DFEFA20FCF753FC022144481D
:104B7000FCF796FEFA20FCF74CFC02214048FCF7BB
:104B80008FFEFA20FCF745FC02213D48FCF788FE29
:104B900004253C480078002863D1354908703A481C
:104BA0000090084602780078401C0B461870314887
:104BB000815C0023354A0220FFF74EFC00BF2F48DE
:104BC0000068401C2D4908602E493048FFF752FF0D
:104BD0002A4800680F281AD125480078062804D1F1
:104BE000002023490870601CC4B227480090204868
:104BF00002780078401C1E4B18701E48815C002310
:104C0000224A0220FFF728FC00201C4908601D48AA
:104C1000007808B9032CD2D100201849086019483F
:104C2000007810B145F002051BE006201649086027
:104C300001211348FCF734FEFA20FCF7EAFB0121BE
:104C40000F48FCF72DFEFA20FCF7E3FB01210C488E
:104C5000FCF726FEFA20FCF7DCFB01210848FCF7F4
:104C60001FFE284638BD0000A8010020C801002012
:104C7000D0010020BD01002038050020C401002023
:104C800000100140A9010020CC010020780500207F
:104C900010B5FCF70FFE02F06EFC10BD10B59CB015
:104CA00009200E90012010901190159000200F9077
:104CB00002201690C1031791C10418910020199089
:104CC0000EA8FEF783F90520099002200A90002023
:104CD0000B904FF480600C9000200D90012109A8EA
:104CE000FDF77CFE112001904FF40070029040030C
:104CF000089001A8FDF720FDFEF78AF84FF47A71BD
:104D0000B0FBF1F42046FFF73FF90420FFF728F944
:104D10000120010791FAA1F1B1FA81F1024A42F8AA
:104D200021001CB010BD0000000042421448006881
:104D300040F00100124908600846406811490840E7
:104D40000F494860084600680F4908400C49086050
:104D50000846006820F4802008600846406820F477
:104D6000FE0048600846006820F0A05008604FF43C
:104D70007F0088600020C862C8030449086070474B
:104D8000001002400000FFF0FFFFF6FE08ED00E01B
:104D900010B51248FFF7B8F911480068401C1049D7
:104DA000086008460068B0F57A7F16D100200860D8
:104DB0000C480068401C0B49086002210A48FCF7B7
:104DC0006FFD084800683C2807D1002005490860AD
:104DD00006480068401C0549086010BD44060020D4
:104DE000880100208C01002000100140900100206B
:104DF00000220268194B98420BD0B0F1804F08D0C6
:104E0000174B984205D0174B984202D0164B984248
:104E100003D122F070024B681A43104B98420BD01A
:104E2000B0F1804F08D00E4B984205D00D4B984200
:104E300002D00D4B984203D122F44072CB681A4342
:104E400002608B68C3620B688362044B984201D195
:104E50000B6903630123436170470000002C01408C
:104E60000004004000080040000C004030B5002362
:104E7000012404FA01F3046A9C430462046A02FAFE
:104E800001F52C43046230BD30B50024002200231C
:104E9000056A25F001050562026A4368846924F009
:104EA000700424F003040D682C4322F002028D6884
:104EB0002A430D4DA84206D100BF22F00802CD685A
:104EC0002A4322F00402084DA84207D123F480733C
:104ED00023F400734D692B438D692B434360846138
:104EE0004D684563026230BD002C014030B500249E
:104EF00000220023056A25F010050562026A436856
:104F0000846924F4E04424F440740D6844EA0524E0
:104F100022F020028D6842EA05120F4DA84207D107
:104F200000BF22F08002CD6842EA051222F0400262
:104F3000094DA84209D123F4806323F400634D692D
:104F400043EA85038D6943EA8503436084614D68C4
:104F50008563026230BD0000002C014030B50024A2
:104F600000220023056A25F480750562026A436801
:104F7000C46924F0700424F003040D682C4322F467
:104F800000728D6842EA05220E4DA84207D100BF8B
:104F900022F40062CD6842EA052222F48062094DC3
:104FA000A84209D123F4805323F400534D6943EA06
:104FB00005138D6943EA05134360C4614D68C563F9
:104FC000026230BD002C014030B5002200230024D5
:104FD000056A25F480550562036A4468C26922F4B3
:104FE000E04222F440720D6842EA052223F40053A5
:104FF0008D6843EA0533074DA84204D124F4804468
:105000004D6944EA85144460C2614D6805640362D9
:1050100030BD0000002C014098B0FFF767FB4FF057
:10502000000900200D900E9034216846FBF717F917
:105030004FF47A70FCF7EDF900BF00231A460FA970
:105040008A48006803F072F80646012E6FD10024EA
:105050009DF83C008DF8000020208DF8010007200D
:1050600034E0109901F00F010DAA11540DA9095C4B
:105070000A2922DB0DA9095C0A3906291CD2DFE8BE
:1050800001F003070B0F131741210DAA115413E070
:1050900042210DAA11540FE043210DAA11540BE037
:1050A00044210DAA115407E045210DAA115403E033
:1050B00046210DAA115400BF04E00DA9095C30314E
:1050C0000DAA1154109909091091401E0028C8DA40
:1050D000022005E0811E0DAA515C0DF80010401C55
:1050E0000A28F7DB20208DF80A000B240020AAE014
:1050F00011A9095C01F0F00711A9095C01F00F0882
:105100003D462D11002121E00A2D16DBA5F10A02F2
:10511000062A11D2DFE802F0030507090C0E41252B
:105120000AE0422508E0432506E0442504E099E032
:10513000452501E0462500BF02E005F13002D5B269
:105140002246641C0DF802504546491C0229DBDB4F
:10515000222C05D02D232146641C0DF8013071E06E
:105160000FA90B7C2146641C0DF801300FA94B7C64
:105170002146641C0DF801300FA98B7C2146641C6C
:105180000DF801300FA9CB7C2146641C0DF80130CD
:105190000FA90B7D2146641C0DF801300FA94B7D32
:1051A0002146641C0DF801300FA98B7D2146641C3B
:1051B0000DF801300FA9CB7D2146641C0DF801309C
:1051C0000FA90B7E2146641C0DF801300FA94B7E00
:1051D0002146641C0DF801300FA98B7E2146641C0A
:1051E0000DF801300FA9CB7E2146641C0DF801306B
:1051F0000FA90B7F2146641C0DF801300FA94B7FCE
:105200002146641C0DF801300FA98B7F2146641CD8
:105210000DF801300FA9CB7F2146641C0DF8013039
:105220009DF85C302146641C0DF801309DF85D301E
:105230002146641C0DF801309DF85E302146641C47
:105240000DF80130401C0828FFF652AF00234A46F3
:1052500069460748006803F052F802210548FCF748
:105260001FFB00BF012002F075F9E6E6E001002017
:10527000E4010020001001408AB03220099000BFF4
:105280004FF01C0A00231A4686498748006802F03E
:105290004DFF0646012E78D100BF8448007818B132
:1052A00083480078002859D17E48007800F0030038
:1052B0008DF810007B4890F8230000F00F00089054
:1052C0009DF8100001280AD17848007838B977484D
:1052D00078490860DFF8E091DFF8E0B114E09DF86C
:1052E0001000022800D03AE09DF8100002280AD1F0
:1052F0006F48007838B96E486E490860DFF8C09191
:10530000DFF8C0B100E02AE0664890F8250002907E
:1053100002984138062810D2DFE800F0030507099B
:105320000B0D05240BE0042409E0032407E002240C
:1053300005E0012403E0002401E0002400BF00BFD9
:10534000CDF800B09DF8100001234A462146FFF732
:1053500083F8012057490968087000E000BF00BFCA
:10536000042700250020059002202CE04D4911F86B
:105370000080A8F14101062917D2DFE801F00307F8
:105380000A0D10134FF00A0812E087E04FF00B08E7
:105390000EE04FF00C080BE04FF00D0808E04FF066
:1053A0000E0805E04FF00F0802E008F00F0800BFFC
:1053B00000BF08FA0AF2059911430591AAF1040108
:1053C00001F0FF0A401C0A28D0DB0020069007905D
:1053D0000B203FE03349095C432914D006DC2D291A
:1053E0001DD0412909D042291DD109E044290DD001
:1053F00045290ED0462916D10EE00A21039118E066
:105400000B21039115E00C21039112E00D21039172
:105410000FE00E2103910CE00F21039109E0FF2121
:1054200003916D1C05E01F49095C01F00F01039118
:1054300000BF00BF0399FF290BD006A94A5D03995D
:10544000B9400A4306A94A55042F01D1002700E0BC
:105450000427401C1349095C2029BBD1002304A95F
:105460001948099A006802F04AFF20B917480068F5
:10547000401C164908601648007870B10023154991
:105480000948099A006802F03AFF30B1002010493B
:1054900008701148006800F044F900BF012002F0D4
:1054A00059F8EDE695070020E8010020AD01002045
:1054B000AE010020B001002038050020C801002006
:1054C00078050020CC010020EC010020DC01002048
:1054D000AF010020FF1000206002002086B000BF56
:1054E00000231A4601A91648006802F01FFE044670
:1054F000012C20D101211348FCF7D2F9124905985B
:105500000861029808600020886000BF06E003A9D7
:105510000A5C0D49143141F82020401C0828F6DBB4
:1055200009480A4908630120FBF773FF4FF47A71B9
:105530000648FBF743FE012002F00CF8D0E700001C
:10554000EC010020001001408006002038050020FA
:105550008EB000BF0023322269460748006802F07F
:10556000E5FD0446012C03D135216846FBF7CCF854
:10557000012001F0EFFFEDE7E401002002460B46B9
:10558000D2F81812D2F8180218B10020C1F814028B
:1055900070470220FCE770B504460E46D4F8185256
:1055A0003146204600F06EFCC5F80C02D4F8180213
:1055B00048B1D5F80402D4F81C12CA6805F5037185
:1055C0009047002070BD0220FCE770B504460E46EF
:1055D00000258121204600F097FB0121204600F0A4
:1055E00093FB8221204600F08FFBD4F8180250B1C3
:1055F000D4F81C1248688047D4F8180200F045FF20
:105600000020C4F81802284670BD70B50546D5F8CC
:105610001842D5F81C0278B194F80002FF280BD08C
:1056200094F8012294F80002D5F81C128B682146E8
:105630009847FF2084F80002002070BD01460A2030
:105640000880014870470000040000200146432004
:1056500008800148704700008C000020014643206C
:1056600008800148704700004800002001464320A0
:105670000880014870470000D00000202DE9F0416B
:1056800004460F460026207C70B94FF400730222B6
:105690008121204600F04EFC4FF4007302220121CC
:1056A000204600F047FC0BE04023022281212046E7
:1056B00000F040FC402302220121204600F03AFC89
:1056C000082303228221204600F034FC4FF40770A7
:1056D00000F0E2FEC4F81802D4F8180208B9012656
:1056E0001CE0D4F81852D4F81C1208688047002037
:1056F000C5F81402C5F81802207C40B94FF40073B5
:1057000001212046D5F8042200F024FC06E04023C5
:1057100001212046D5F8042200F01CFC3046BDE8EB
:10572000F08170B50446D4F81852D4F8180298B134
:10573000207C40B94FF4007301212046D5F80422A3
:1057400000F008FC06E0402301212046D5F80422A1
:1057500000F000FC002070BD0220FCE702460220A1
:1057600011B1C2F81C12002070470246D2F818325C
:10577000C3F804120020704710B50346D3F818424E
:10578000C4F80812C4F81022002010BD70B50546F8
:105790000C46D5F81862207800F06000202826D149
:1057A000E088E0B1207800F0800060B1E2886078A5
:1057B000D5F81C128B6831469847E2883146284656
:1057C00000F0A7F812E0607886F80002A07986F869
:1057D0000102E2883146284600F07AF806E0607857
:1057E000D5F81C1200228B681146984700E000BFD4
:1057F00000BF002070BD70B50546D5F81842D5F839
:10580000180290B1D4F8140268B90120C4F8140247
:10581000B4F8100283B281212846D4F8082200F09F
:1058200044FC002070BD0120FCE70220FAE770B5BF
:1058300004460D46D4F81402294642682046904793
:10584000002070BD70B504460D4694F8FC01022896
:1058500002D0032811D100E000BF688801280BD1D5
:105860000020C4F80402D4F81402294682682046B5
:105870009047204600F05EF804E02946204600F0FC
:105880001BF800BF00BF70BD70B506460C4615463C
:105890002B4622460021304600F05CFB002070BD04
:1058A00070B506460C4615462B462246002130466A
:1058B00000F0FBFB002070BD70B504460D46802152
:1058C000204600F0D6FB0021204600F0D2FB70BD40
:1058D00070B504460E4615460320C4F8F4014FF493
:1058E00084700551001D05512B463246002120468B
:1058F00000F030FB002070BD10B504460520C4F850
:10590000F40100231A461946204600F023FB00202C
:1059100010BD70B504460E4615460220C4F8F401C9
:10592000A561E5612B4632460021204600F0BDFB13
:10593000002070BD10B504460420C4F8F401002313
:105940001A461946204600F0B0FB002010BD0000AA
:1059500070B505460C462DB92246064906A000F052
:1059600087F904E02246034903A000F081F90148C9
:1059700070BD0000F002002043444320436F6E6678
:105980006967000002461220088001487047000045
:105990003401002070B505460C462DB92246064953
:1059A00006A000F065F904E02246034903A000F0D8
:1059B0005FF9014870BD0000F0020020434443201D
:1059C000496E7465726661636500000002460420DA
:1059D00008800148704700004801002070B5054666
:1059E0000C462246024903A000F042F9004870BD6F
:1059F000F002002053544D6963726F656C656374E7
:105A0000726F6E696373000070B505460C462DB960
:105A10002246064906A000F02BF904E0224603497D
:105A200003A000F025F9014870BD0000F00200203D
:105A300053544D3332205669727475616C20436F34
:105A40006D506F727400000070B505460C462DB99C
:105A50002246064906A000F00BF904E0224603495D
:105A600003A000F005F9014870BD0000F00200201D
:105A700030303030303030303030314100000000D4
:105A800070B504460D46E888012804D02946204612
:105A9000FFF712FF1BE094F8FC01022802D0032854
:105AA0000FD108E00020A060012204F10801204687
:105AB000FFF72FFF0AE00122211D2046FFF729FFF3
:105AC00004E029462046FFF7F7FE00BF00BF70BD87
:105AD000F8B504460E467088001208287FD2DFE829
